:1040000000100020915D000021970000259700001E
:10401000C3BD02002997000031970000C3BD020014
:10402000C3BD0200C3BD0200C3BD0200C3BD020088
:10403000359700002C480300C3BD0200C3BD020039
:10404000C3BD0200C3BD0200C3BD02007562000013
:10405000C3BD0200C3BD0200C3BD0200C3BD020058
:10406000C3BD0200C3BD02006DAA0000855B000055
:10407000B1BA0200C3BD0200C3BD0200C3BD02004D
:10408000C3BD0200C3BD0200C3BD0200C3BD020028
:10409000C3BD0200156A0000C3BD0200C3BD02001B
:1040A000C3BD02008D6B00006D6B0000C3BD02003C
:1040B000C3BD020075190300C3BD0200C199010010
:1040C0007B19030077190300819101008719030010
:1040D0007F1903008599010083190300B97F01004E
:1040E000019A0100C3BD0200C3BD02004198000057
:1040F000C3BD0200C3BD0200C3BD0200C3BD0200B8
:10410000C3BD0200C3BD0200C3BD0200C3BD0200A7
:10411000C3BD0200C3BD0200C3BD0200C3BD020097
:10412000C3BD0200C3BD0200C3BD0200C3BD020087
:10413000C3BD0200000000002DE9F34700264FF048
:10414000010A34464FF6FF7837462B4BDFF8BC9018
:104150002A4DC3F804A0C9F80CA0D9F8142002F421
:10416000A072B2F5807FF8D14946684628F035F84C
:10417000009B022E2B600AD92B68BB42C8BF2F6858
:104180002B684345B8BFD5F800802B681C44013626
:10419000F6B2092EDFD107EB0803E41A48BF033457
:1041A000A4102C60286825F0E7FE0FA3D3E90023B4
:1041B00025F04CFF0EA3D3E9002326F071F8024648
:1041C0000B460F49C1E9002301220E4B5A60D1E989
:1041D000000100220C4B25F039FF26F0F9F980B2DE
:1041E00002B0BDE8F08700BF3333333333331340BD
:1041F0000000000000FEAF400050005A481B0020A5
:10420000401700200060005A00408F400040005AD4
:104210002DE9F04F2DED088B8DB09DED1E7B09EE45
:10422000903ADDE920430A93229B09EE100A8A4660
:104230000792069351EC170B53EC172BB0EE478AFD
:10424000F0EE678A26F06AF980B14FF0FF3251EC48
:10425000180BCF4B26F08AF940B94FF0FF326FF4BC
:10426000801351EC180B26F063F998B1069B514668
:1042700022930A9B19EE100ACDE9204319EE903AD9
:10428000079A8DED1E8B0DB0BDEC088BBDE8F04F8D
:1042900000F0A2B90022002351EC180B26F048F9D7
:1042A000002800F0448118EE903A18EE108A03F1CD
:1042B0000049069BC9F30A5013F48063A0F2FF3053
:1042C00008BF06240B9325F057FEA1A3D3E90023D2
:1042D00025F0BCFEA0A3D3E9002325F001FDC9F31E
:1042E00013050F4645F07F5106460022A94B404674
:1042F00041F4401125F0F2FC99A3D3E9002325F005
:10430000A5FE02460B463046394625F0E9FC26F06C
:1043100037F9834625F030FE93A3D3E90023064600
:104320000F4625F093FE00229B4B25F0D9FC26F08A
:1043300027F98FA3D3E9002305463946304625F0F7
:1043400085FE064628460F4625F016FE8AA3D3E9C9
:10435000002325F07BFE02460B463046394625F009
:10436000BDFC02460B4606460F4625F06FFE324660
:1043700041EC1A0B3B463046394625F0B1FC002291
:1043800041EC1B0B854B51EC1A0B25F089FF0022E9
:10439000834B25F0A5FC02460B4651EC1A0B25F089
:1043A0007FFF00227F4B25F09BFC02460B4651EC21
:1043B0001A0B25F075FF324641EC1A0B3B460020E4
:1043C0004FF0804125F08AFC02460B4651EC1A0B57
:1043D00025F086FC02460B4651EC1B0B25F060FFD6
:1043E00005F2FF350022704B25F07AFC00222B05E8
:1043F00025F02CFE42464B4606460F4626F0B6F800
:10440000002840F09780CDE908670BF16303C72BC4
:10441000069B34BF04250525190521D558A3D3E9EA
:1044200000234046494626F097F8002800F0BE8059
:1044300055A3D3E900234046494626F079F80028E1
:1044400000F0B48000255C45CCBFA4EB0B00002439
:10445000AB46069BC8BF00F1FF3443F4806306936C
:104460000A9B9D4238BF5E1B069B28BF002613F0A7
:10447000020702D0002D18BF0026BBF1000F07D0A5
:10448000DDE908234046494625F00AFF8046894673
:104490000022002351EC180B26F04AF810B109F164
:1044A00000439946069B514623F40063CDE903631C
:1044B00019EE100A19EE903ACDE90089079A029494
:1044C00000F08AF875B3069B024613F0200F00F146
:1044D000010619EE903A14BF45206520514619EEA9
:1044E000104AA0470523002205930A238BEAEB70AC
:1044F000CDE90232A0EBEB704FEADB73013D019393
:10450000009019EE903A3246514619EE100A049581
:104510002CF06DF837B1079BC51A079B58190A9BF9
:10452000AB424CD80DB0BDEC088BBDE8F08F59EC18
:10453000188BBEE6002230463946194B25F0B0FEF6
:104540000BF1FF3BCDE908015FE700BFAFF300804F
:10455000FB799F501344D33FB3C8608B288AC63F72
:1045600061436F63A787D23F71A379094F930A40D4
:104570001655B5BBB16B0240EF39FAFE422EE63F4D
:104580002D431CEBE2361A3F0000000080842E41D0
:10459000FFFFEF7F0000F83F0000E03F00002C40ED
:1045A00000002440000018400000F03F002C3FF4C1
:1045B00057AF0B9B002B3FF453AF013C50E7024633
:1045C00019EE903A5146202019EE104AA0470135C5
:1045D000A3E700BF000000002DE9F04F2DED088B90
:1045E0008FB0DDE920AB08EE100A0F4608EE902AE6
:1045F00009EE103ADDE922535246049350465B46D9
:104600005946249E25F08AFFA0B9049B2396229345
:1046100003232193B84B209318EE902A19EE103AF9
:10462000394618EE100A0FB0BDEC088BBDE8F04F0C
:104630002BF015BF4FF0FF326FF4801350465946F0
:1046400025F076FF30B1049B239622930423219317
:10465000AA4BE0E74FF0FF3250465946A84B25F0F1
:1046600085FF70B1A74A06F00403002B08BF0322A0
:10467000A54B1CBF1346042204992396CDE92121A2
:10468000C9E7504698A3D3E90023594625F06EFFA9
:1046900038B997A3D3E900235046594625F048FF7F
:1046A00098B1049B18EE902ACDE92253394619EEB1
:1046B000103A18EE100ACDE920AB24960FB0BDECED
:1046C000088BBDE8F04FFFF7A3BD00220023504642
:1046D000594625F02DFF002800F081805B465246A8
:1046E0000020002125F0FAFA012382468B4605932B
:1046F00016F4806F08BF06253021A94606ABA5F148
:104700002002B9F1090FA5EB090406D909F1FF3917
:104710004A4503F8011BF4D120245946504625F0A0
:104720002FFF7A4B054603EBC90393ED007BB0EEF8
:1047300047AAF0EE67AA25F01FFC02460B4650463A
:10474000594625F0CBFA53EC1A2B25F07FFC024694
:104750000B4643EC1B2B25F03BFF804625F0FCFB72
:1047600002460B4651EC1B0B25F0B8FA02460B46ED
:1047700043EC1B2B0022664B25F0F8FE88B308F1B2
:104780000108404625F0E8FB02460B4651EC1A0BA7
:1047900025F0D8FE10B14FF000080135B9F1000F37
:1047A00051D1284625F0E8FB02460B4650465946B3
:1047B00025F094FA0022564B8046894625F0B8FE33
:1047C00030B1002240464946514B25F0CFFE10B192
:1047D000E80700D5013506AB0A2223445AE00590CC
:1047E00086E7002251EC1B0B494B25F0A1FE002867
:1047F000D4D1B8F1000F02D018F0010FCED008F1DB
:104800000108CBE7B8FBF1F001FB1082B8F1090F0A
:1048100002F1300209F1FF3904F1010403F8012B20
:1048200028D83021A14406AA202C11D04C4504F1EF
:10483000010321D104F138020DEB02042E2204F809
:10484000202C1C46C7E70A2106AB2344202CD9D1D3
:1048500006F00303012B06AB39D1049A002A36D0A7
:10486000059A12B916F00C0F02D0049A013A04927C
:10487000302214E08046E9E7A1541C46D4E795FBBA
:10488000F2F102FB1155303503F8015B01340D469E
:104890000029DDD0202CF2D1DAE71A550134049931
:1048A000A14214D9202CF8D1049A0093CDE90142F9
:1048B00019EE103A18EE902A394618EE100A0396AF
:1048C0002BF0CDFD0FB0BDEC088BBDE8F08F202C98
:1048D000EAD0059AF2B12D2104F138026A4402F8B7
:1048E000201C0134E0E700BF0000000065CDCD4191
:1048F0000000000065CDCDC1396703003D670300AE
:10490000FFFFEF7F34670300306703004867030051
:104910000000E03F710704D504F138022B216A44FE
:10492000DDE73207C0D504F1380220216A44D6E71A
:1049300070B58EB02C22002103A82FF039FC64231F
:104940004FF00232012108938DF81010CDE90523B4
:104950000B238DF83430504B1B88D80700F195801D
:1049600008464E4C17F0ECFF4D4B0A224D494E487D
:104970001A704FF42873ADF8123015F0BBF82060B0
:1049800020B940F22721494804F0C8FD05212068DC
:104990002CF09BFB20B140F23221444804F0BEFDD4
:1049A00020680C2501F0FAF8414B206819682CF0BA
:1049B00004FC18F099FE6843099018F095FE6843CE
:1049C0000DEB0501079020680FF03EFC20B140F28E
:1049D0004721364804F0A2FD0022364920682CF019
:1049E00071FC20B140F24921304804F097FD324E6D
:1049F00040F20353314D96F900002B8005237F28A8
:104A0000AB7001D118F096F83378EB7018F06CFEAB
:104A100000EB80008000A88018F066FE0023C00034
:104A20004FF0FF31E8804FF0FF30AB6018A3D3E9BF
:104A3000002318F057F9224920682DF035F802A913
:104A400020682CF01EFC20B14FF41F71174804F0B1
:104A500065FD042220680DEB02012CF09BFB04286D
:104A600004D040F27F21114804F058FD01A9012033
:104A70002DF008FA04F098FE012019F09FF827F0B5
:104A8000B4FC19F0C5F818F0C7F80EB070BD00BF3F
:104A90000A0020FF420300006A4600204C4100202B
:104AA000B34E00206DC901004C1200203C89030068
:104AB000F8100020BA4E0020741500203841002064
:104AC0004DCA010010B5054C237833B9044B13B11E
:104AD000044800E000BF0123237010BDB01900207E
:104AE000000000005C8D030008B5034B1BB10349B7
:104AF000034800E000BF08BD00000000B41900201A
:104B00005C8D0300A3F5803A704700BF174B002B64
:104B100008BF134B9D46FFF7F5FF00218B460F465C
:104B20001348144A121A2FF043FB0E4B002B00D0EF
:104B300098470D4B002B00D098470020002104001F
:104B40000D000D48002802D00C4800E000BF25F001
:104B50000BFF2000290026F066FF25F0F1FE00BFC4
:104B6000000008000000000000000000001000200D
:104B700040170020184F0020000000000000000037
:104B800013B5FFF7D9FA40F6B73398421D4C21D937
:104B9000642223689A7223681B4A997A10788842A3
:104BA00008D01170202201210092084621220A33E8
:104BB0002AF0F7F92368154AD97A1078884207D085
:104BC000117020220121009208460B332AF0E9F9E6
:104BD00002B010BD40F6C413984283BFA0F6C413C0
:104BE0000520B3FBF0F30123226888BF9BB2917AC2
:104BF0009942D0D9C81A1428C6BF14399172937239
:104C0000C9E700BF98100020FA460020FB460020AC
:104C1000F0B5414D87B01022002102A82FF0C8FA4C
:104C200001F0C4FF10230121286802AA0EF022FD22
:104C30003A4C00283ED064238DF80F305523ADF850
:104C400008300023ADF80A30ADF80C308DF8113083
:104C500041F66463ADF81230FA23ADF81430AA239C
:104C600022688DF8163002AE06AF334603CBBB4246
:104C7000106051601E4602F10802F6D102AA10230C
:104C8000012128680EF0ACFC2025012141F6646268
:104C9000236808465A812A4600950B332AF081F989
:104CA000012123682122084600950A332AF079F968
:104CB00007B0F0BD9DF80830552B03D19DF8163094
:104CC000AA2B12D0AA238DF8163064238DF80F304A
:104CD000FA23ADF814305523ADF808300023ADF8B1
:104CE0000A30ADF80C308DF8113041F66463ADF840
:104CF00012309DF80930226801338DF8093002AE78
:104D000006AF334603CBBB42106051601E4602F132
:104D10000802F6D1B2E700BFD4100020981000209E
:104D200030B585B01022002168462FF041FA552396
:104D30008DF8003064238DF8073041F66463ADF8D8
:104D40000A30FA23ADF80C30AA236C468DF80E30E9
:104D50000B4B04AD1B685A7A8DF80920224603CA12
:104D6000AA4218605960144603F10803F6D10548B9
:104D700010236A46012100680EF032FC05B030BDF8
:104D800098100020D410002010B5044629F015FD1D
:104D9000022806D0032820D008B907F06FFE0CB90E
:104DA00010BD9CB109F0C0FFFFF7BAFF01220F4B05
:104DB000FF211A7000220E4B0E481A7006F0D2F92D
:104DC000BDE810404FF4FA711AF00EB9074B642099
:104DD0001C70BDE8104006F07BBC2EF08CF907F08B
:104DE00037FD0122014B1A70D9E700BFFE460020B3
:104DF000FD4600200C1B002038B5214C2378012BE8
:104E00000BD1204827F0B1F81F4827F0AEF81F4813
:104E100027F0ABF81E4827F0A8F81E4A1378013394
:104E2000DBB2052B13701BD90025237815705BB1FD
:104E30002846FFF7A9FF184A13780133DBB20E2B7F
:104E4000137010D9157025700E4827F08BF80E4896
:104E500027F088F80D4827F085F80D4827F082F8EC
:104E600023781BB938BD2378002BEDD0FF210B48E8
:104E700006F078F9BDE838404FF4FA711AF0B4B88A
:104E8000FE460020484703006047030078470300C0
:104E90009047030000470020FD4600200C1B002027
:104EA000044B1B681A7822B1002201201A70FFF708
:104EB0006BBF70479C10002008B5FFF7A9FE00F0FB
:104EC000EDFCFF21034806F04DF9BDE8084002491A
:104ED0001AF08AB8CC190020E09304007FB50024B2
:104EE00005460E4602948DF80C4029F066FC022817
:104EF00026D1144B1B681B79022B21D08DF808603A
:104F0000012602ABFD220621009311200E4B0196D3
:104F10000BF07CF8314628460BF0FAF82146204683
:104F20002AF0A1F8FF21094806F01CF908491AF0F7
:104F30005BF8FF21074806F015F907491AF054F805
:104F400004B070BD8C300020DC5C0300EC19002044
:104F500000BADB00CC190020E093040010B5184C17
:104F60002368D97809B327F01AFE23689B69C01A11
:104F700041F26F7398420FD90120FFF705FF00221D
:104F80002368DA700F4B1B7813B90F4826F0EAFF3D
:104F900000222368DA7110BDFF210C4806F0E2F808
:104FA00040F6B8311AF020F8ECE7DB79012B04D990
:104FB00001210420FFF792FFE4E7E3D1F9E700BF06
:104FC0009C100020FE46002090470300CC1A0020D1
:104FD00010B5184C2368997809B327F0E0FD2368D1
:104FE0005B69C01A41F26F7398420FD90120FFF735
:104FF000CBFE002223689A700F4B1B7813B90F4821
:1050000026F0B0FF002223689A7110BDFF210C48E2
:1050100006F0A8F840F6B83119F0E6FFECE79B7906
:10502000012B04D901210320FFF758FFE4E7E3D166
:10503000F9E700BF9C100020FE46002078470300DF
:10504000AC1A002010B5184C2368597809B327F022
:10505000A6FD23681B69C01A41F26F7398420FD9ED
:105060000120FFF791FE002223685A700F4B1B7836
:1050700013B90F4826F076FF002223685A7110BD3D
:10508000FF210C4806F06EF840F6B83119F0ACFF7D
:10509000ECE75B79012B04D901210220FFF71EFF09
:1050A000E4E7E3D1F9E700BF9C100020FE460020B2
:1050B000604703008C1A002010B5184C236819783B
:1050C00009B327F06CFD2368DB68C01A41F26F73E7
:1050D00098420FD90120FFF757FE002223681A706B
:1050E0000F4B1B7813B90F4826F03CFF00222368B2
:1050F0001A7110BDFF210C4806F034F840F6B831A3
:1051000019F072FFECE71879012804D9012108464B
:10511000FFF7E4FEE4E7E3D1FAE700BF9C100020CC
:10512000FE460020484703006C1A002030B50025D9
:1051300085B0044602958DF80C5029F03EFB0228FC
:1051400033D1274B1B681B79022B2ED0032C02ABCB
:105150002DD180218DF80910302104228DF80A10FC
:1051600020498DF8082009681820497ACDE90032D5
:105170008DF80B100A2206211B4B0AF047FF012174
:1051800008460AF0C5FF0021084629F06CFFFF2100
:10519000164805F0E7FF164919F026FFFF211548CC
:1051A00005F0E0FF144919F01FFF05B030BD042CD5
:1051B0004FF0010208D18DF80850CDE90032FC22F1
:1051C000094B06211120D8E7052C02D18DF80820C3
:1051D000F3E7CDE900328DF80840FD22024BF0E7FD
:1051E0008C30002098100020DC5C0300EC190020BB
:1051F00000BADB00CC190020E093040070B58CB03D
:1052000006460D46144629F0D8FA022840F0898057
:105210000023052E0AD8DFE806F0032D404D586222
:10522000022206210120404B0AF0F0FE012108462F
:105230000AF06EFF002408A9E0B22CF079FC0028E7
:105240006AD19DF82030032B66D1BDF8250029F0E6
:1052500007FFFF21354805F085FF354919F0C4FEE9
:10526000FF21344805F07EFF33490CB0BDE87040A3
:1052700019F0BABEB5FA85F5CDE903334FF6FF73E1
:1052800004EB84046D090293022208212B4B019444
:10529000009501200AF0BAFEC8E70120CDE90233EB
:1052A000C82304224FF44071CDE90003244B0AF0D7
:1052B000ADFEBBE70122CDE902330F234FF440716D
:1052C000CDE9002310461E4BF1E7CDE9003347221C
:1052D0004FF440711B4B01200AF098FEA6E741F6FF
:1052E0006412CDE9053340F68C230120002D14BF54
:1052F00001210321CDE9033204EB4402C4EB421443
:105300008440A4B2CDE900144C224FF440710E4BFE
:1053100002900AF07BFE89E70134402C8BD10020FB
:1053200095E70CB070BD00BF384E0300EC190020AB
:1053300000BADB00CC190020E093040018460300FB
:105340001E460300204603002346030010B51C4CF4
:1053500023689A7A5B7A9A4220D93AB1194B1B6832
:105360005B7A012B0DD10520FFF7E0FE164B1B7871
:1053700013B9164826F0F6FD002223681A819A72A6
:1053800010BD134B5B69C3F3C0011B0701D405209B
:1053900001E000210120FFF731FFE7E7002BE5D016
:1053A000084A1268527A012A01D10420DCE7084A2F
:1053B0000121526912F0080F1A46E8D00846EAE7C0
:1053C0009C10002098100020FE4600204847030053
:1053D00000C0035030B4074D0629287008D13AB9EF
:1053E000402B05D101230293034B30BC29F02ABE88
:1053F00030BC7047FC460020FF4600201FB500244B
:10540000CDE9024429F0D9F9022835D121238DF8BC
:1054100008302023194A8DF80A3012688DF80C30B4
:105420008DF80E30D37A917A8DF80F3008230193DE
:105430006B440A228DF80B1000930121104B1820A9
:105440008DF809408DF80D400AF0E0FD0121084675
:105450000AF05EFE2146204629F005FEFF2109489C
:1054600005F080FE084919F0BFFDFF21074805F04F
:1054700079FE074919F0B8FD04B010BD981000205E
:10548000DC5C0300EC19002000BADB00CC19002022
:10549000E0930400FF2310B51A462149214805F086
:1054A00021FEFF2320491A46204805F01BFEFF235A
:1054B0001F491A461F4805F015FEFF231E491A46CC
:1054C0001E4805F00FFEFF231D491A461D4805F032
:1054D00009FEFF231C491A461C4805F003FEFF2362
:1054E0001B491A461B4805F0FDFDFF231A491A46C1
:1054F0001A4805F0F7FDFF2319491A46194805F027
:10550000F1FDFF2318491A46184805F0EBFDBDE8E8
:105510001040FF2316491A46164805F0E3BD00BFA8
:1055200009BA02004C1A0020B95000006C1A002081
:10553000455000008C1A0020D14F0000AC1A00200A
:105540005D4F0000CC1A0020A14E00000C1A002074
:10555000F94D00000C1B00201BBA0200EC190020C2
:105560004D530000EC1A002011BA02002C1A002042
:10557000814B0000CC190020912808B503D1BDE86B
:10558000084029F01AB9902810D129F016F90228FC
:105590000CD126F054FA25F029FB41F66462044B45
:1055A0001B685A81BDE80840FFF728BF08BD00BF4F
:1055B0009810002008B548B9FF21054805F0D2FD34
:1055C000BDE8084040F6B83119F00EBD08BD00BF77
:1055D0004C1A002008B5FF21044805F0C3FDBDE8C2
:1055E000084040F6B83119F0FFBC00BF4C1A00204B
:1055F0009F4A38B51568854257D126F03BFC0446D2
:1056000078BB9C4D2B681A78002A00F02F811A79FC
:10561000187001321A7127F0C2FA2B68DA68801A02
:1056200040F6B732904214D9022101201C71FFF7D5
:1056300055FCFF21904805F095FD19F04FFD8F4B6B
:105640001B78002B40F012818D48BDE8384026F0D1
:1056500089BCFF21884805F085FDFA2119F0C4FCBA
:10566000EDE7284626F006FC012840F0FF80814C3B
:1056700023681A78002A40F0F98018707F4B1B7855
:1056800013B97F4826F06BFC246827F088FAFF21C5
:10569000E060794805F066FD40F6B83119F0A4FCE9
:1056A000BDE83840022006F01BB8556885424AD153
:1056B00026F0E0FB044660BB6E4D2B685A78002A4A
:1056C00000F0D4805A79587001325A7127F067FA85
:1056D0002B681A69801A40F6B732904211D902211C
:1056E0005C710846FFF7FAFBFF21664805F03AFDBA
:1056F00019F0F4FC614B1B78002B40F0B780624836
:10570000A3E7FF215F4805F02DFDFA2119F06CFC9D
:10571000F0E7284626F0AEFB012840F0A780554C64
:1057200023685A78002A40F0A1805870534B1B78A8
:1057300013B9554826F013FC246827F030FAFF21EE
:1057400020615048A6E79568854247D126F092FB34
:10575000044658BB474D2B689A78002A00F0868093
:105760009A79987001329A7127F019FA2B685A6960
:10577000801A40F6B732904210D9022103209C7162
:10578000FFF7ACFBFF21414805F0ECFC19F0A6FC4B
:105790003A4B1B78002B69D13D4856E7FF213B4827
:1057A00005F0E0FCFA2119F01FFCF1E7284626F08D
:1057B00061FB01285AD12F4C23689A78002A55D1D1
:1057C00098702E4B1B7813B9314826F0C8FB24681B
:1057D00027F0E5F9FF2160612C485BE7D568854239
:1057E00044D126F047FB044648BB224D2B68DA78AB
:1057F000002A3BD0DA79D8700132DA7127F0CFF97C
:105800002B689A69801A40F6B73290420FD902216C
:105810000420DC71FFF762FBFF211E4805F0A2FCAB
:1058200019F05CFC154B1B7803BB1B480DE7FF21EF
:10583000184805F097FCFA2119F0D6FBF2E7284644
:1058400026F018FB012811D10A4C2368DA786AB9CE
:10585000D8700A4B1B7813B90F4826F080FB2468D8
:1058600027F09DF9FF21A0610A4813E738BD00BF6A
:10587000AC1000209C1000206C1A0020FE46002076
:10588000484703008C1A002060470300AC1A002030
:1058900078470300CC1A00209047030070B52B4EC8
:1058A00090B008AD0FCE0FC596E80F00002485E834
:1058B0000F0001260323264DCDE9034428468DF829
:1058C0000E30CDE9054407948DF808608DF8094045
:1058D0008DF80A408DF80B4001F0FAFF02210520F7
:1058E00001F00CFD0223224628461A498DF8173094
:1058F00002F074F8234622468DF8190000901549ED
:1059000028468DF8234002F083F810230A9008AA55
:10591000284605A98DF809308DF8086002F09EF838
:10592000284602AA03A926F017FC0B4B05F50055E3
:10593000D3F828233243C3F82823D3F8282342F48A
:105940008032C3F828236E6010B070BD2C4603006F
:105950000040005A8096980000C0035010B51E4CBD
:1059600026F08BFB236F23F0070343F0020323672A
:1059700026F08AFBD4F82031002023F0070343F0FF
:105980000103C4F82031D4F8403123F0030343F07D
:105990000103C4F84031D4F8603123F0030343F02D
:1059A0000103C4F86031D4F8403223F0030343F01C
:1059B0000103C4F84032D4F8003223F0070343F067
:1059C0000103C4F80032D4F8083223F0070343F08F
:1059D0000103C4F8083210BD0080005007B501A8CB
:1059E00002F010FB9DF80530012B27D1214A936D61
:1059F000DB0313D4536B23F4FF0323F4FE4343F47C
:105A0000BC1343F4A0635363136B23F4704343F458
:105A100040431363136B43F4E06313639DF8043056
:105A200063B94FF000531B68134B1B68134B1B6883
:105A3000134B1B68134B1B68134B1B68134AD2F89C
:105A4000803043F00303C2F8803002F005FF02F01B
:105A5000C1FE02F0C7FEFFF781FF02F0A9FE00F0D1
:105A6000D1FB03F017FA01F0A1F803B05DF804EBE5
:105A700004F056B900C00050004000200080002013
:105A800000C00020000001200040012000800050E4
:105A900030B5174D95B00DAC0FCD0FC495E807008C
:105AA000144B84E80700144A0021CDE903230623A0
:105AB000102209A8CDE905312EF07AFB4FF48021A0
:105AC0000E4B0DAACDE907130B238DF824300C23C0
:105AD0008DF825300A4B07A90A9320230B93094B15
:105AE0000948009303AB03F0F7F815B030BD00BFD1
:105AF000CC4603002100050000800550248005509D
:105B0000014700204C1B0020A41B0020831E012BFA
:105B100010B512D8012910D8114B04221B69052198
:105B20000020C3F3401301F091FE0E4B1B68186870
:105B3000A8B1BDE81040436A18478B1E012B0CD852
:105B400001280CD8BDE810400022054B05211B6937
:105B50001046C3F3401301F079BE0129E5D910BD09
:105B600000C00350A810002008B50449044804F000
:105B700081F9BDE80840FFF78BBF00BFA0100020EF
:105B80009C1B0020014826F0BBBF00BFA41B0020C7
:105B9000014B1A6A18681047A41B002008B50EF0C4
:105BA00089FB0022014B1A7008BD00BF214700206D
:105BB00008B5074826F059F9064826F056F9064870
:105BC00026F053F9BDE80840044826F04EB900BF5E
:105BD000E84603000047030018470300304703006E
:105BE00008B5074826F0B8F9064826F0B5F9064882
:105BF00026F0B2F9BDE80840044826F0ADB900BF70
:105C000048470300604703007847030090470300BC
:105C10000A46014925F0A6BFB24703000A460149DA
:105C200025F0A0BFC64703000A46014925F09ABFE8
:105C3000F74703000A46014925F094BFCE47030009
:105C40000A46014925F08EBFD54703000A4601499F
:105C500025F088BFFC4703000A46014925F082BFB2
:105C6000034803000A46014925F07CBFE3470300CF
:105C70000A46014925F076BFDC4703000A46014980
:105C800025F070BFEA4703000A46014925F06ABFC4
:105C90000A4803000A46014925F064BFCB470300C8
:105CA0000A46014925F05EBFC34703000A46014981
:105CB00025F058BFA84703000A46014925F052BF06
:105CC000AD4703000A46014925F04CBFB747030022
:105CD0000A46014925F046BFBC4703000A46014970
:105CE00025F040BF204803000A46014925F03ABF8D
:105CF00017480300002209490B684BB1834204D1C5
:105D0000836A4AB19362012070471A469B6AF4E79E
:105D10000028F5D0184670470B60F4E7C81B002038
:105D200070B5104D2B681BB100260F4B1C6804B9D1
:105D300070BD94F82C3093B126F0BFF92B6884F82D
:105D40002C60013B2B6026F0BEF994F82D3013B97E
:105D50002046FFF7CFFFD4E9083120469847A46AD0
:105D6000E5E700BFCC1B0020C81B0020034B1B68CD
:105D7000002B0CBF01200420704700BFCC1B00206B
:105D8000024B1868B0FA80F040097047CC1B002025
:105D900008B500F02DF8124B12498B4212D30020A7
:105DA000114B12498B4218D3FEF7B0FE186850F819
:105DB0002240586840F82240013298688242F5D368
:105DC0000C33EAE70022F8E71C6844F822000132AD
:105DD0005C68A242F8D30833E4E70022F8E700BF8A
:105DE000648D0300708D0300708D0300708D0300BF
:105DF0006FF00100104B114A10B59A60D3F888205B
:105E00000F4942F47002C3F8882001F50052106671
:105E100041F2FF7050660220C3F8D000BFF34F8FED
:105E2000BFF36F8F08244FF440330648C0F8804119
:105E3000D36004600B6110BD00ED00E00040000085
:105E40000080004400E100E0014B1868704700BF8B
:105E5000C0100020014B1860704700BFC010002028
:105E6000084B1B6F03F00703022B04D0032B05D054
:105E7000012B05D0FEE7044B18687047034BFBE786
:105E80000348704700800050C0100020C41000205C
:105E9000002D310108B5FFF7E3FF054B1B6FC3F37E
:105EA00001330133B0FBF3F0024B186008BD00BFB3
:105EB00000800050BC1000200048704700B4C404AB
:105EC000014B1868704700BFC4100020054B1860D4
:105ED000054B1B6F03F00703032B01D1FFF7DABF5C
:105EE000704700BFC4100020008000500048704779
:105EF000002D3101174B9868C0F304400C2822D8BC
:105F0000DFE800F0092121212121071719211B1D9C
:105F10001F00114870479B6803F04073B3F1807F06
:105F200013D0B3F1007F12D00C4A002B08BF1046EB
:105F300070470B4870470B4870470B4870470B4839
:105F400070470B487047002070470A4870470A485E
:105F5000704700BF0040015A405DC60000093D0087
:105F60000024F400C0EA210180BA8C010048E80155
:105F7000005A620280841E0040420F00014B1868E4
:105F8000704700BFC8100020BFF34F8F0549064B74
:105F9000CA6802F4E0621343CB60BFF34F8F00BFC7
:105FA000FDE700BF00ED00E00400FA0500239B6A56
:105FB000B3F5804F03D21968064A914203D00023FB
:105FC000037083607047012202709A689B69426087
:105FD000F7E700BF07B0CD5E08B54FF00053024AA7
:105FE0001A60FFF7D1FF00BF02020FF073B5494BF3
:105FF00004461A781AB102221A7002B070BDCDE9B7
:1060000000220028F9D001261E7026F056F8424DD5
:10601000424B186010F0AAFE2B785BB900F0C6FD69
:1060200040B93F4808233F4A3F4900680DF022FB32
:1060300000B92E703D4B5A68E2603D4A9A601A6E74
:1060400022605A6E6260D3F87021A2601B6E5C04FD
:1060500040D5384AD368D807FCD4374B1A68531C4C
:106060003DD04FF480139340344A13660423334CDD
:1060700023664FF48063236625F0C7FE01300ED0FF
:1060800025F0C3FE40F20113984208D04FF480433C
:1060900023664FF4004323661023C4F870311023A5
:1060A000264C4FF0804223664FF400536846236627
:1060B00001A92266636625F08DFE009B2366019B85
:1060C00063662B78002B98D0164B1A6822665B68A3
:1060D000636692E71A4AD368D907FCD4BDE7194B27
:1060E0001B78002BC2D1184B5A68144B12B94FF4CD
:1060F00080121A66154A526812B94FF400121A66D5
:10610000134B5B68002BB1D14FF480020B4B1A6626
:10611000ACE700BF2447002022470020E81B0020F6
:10612000D4100020E01B0020007108000080004413
:1061300055CEAC0000000440CC100020009000447C
:1061400000000450234700200080055000C0055087
:106150000000065038B5224D04462B78012B02D0A2
:1061600001232B7038BD0028FCD025F04EFE0130F5
:1061700009D025F04AFE40F20113984203D0194A93
:10618000D368DB07FCD42268174B1A6662685A662C
:10619000A268C3F87021E268D40744BF00229A6065
:1061A000124B1A68013213D1114A127882B911497F
:1061B0004968C80748BF1A600F4A5268D10744BFF0
:1061C00001221A600D4A5268D20744BF02221A60A7
:1061D00010F0D4FD0A4B186825F075FF0023C0E7C6
:1061E000244700200000044000800044CC10002020
:1061F000234700200080055000C0055000000650D5
:10620000E81B002070B50024A36AB3F5804F22D2AA
:106210001A68124B9A421ED1114E337813F0FD05C5
:1062200017D11048FFF7E2FE08214FF480330E4AE1
:106230000E48C2F88011C36011600D4A1361AB6A49
:10624000DB69984704460748FFF784FF0CB9012330
:106250003370204670BD4FF48174FAE707B0CD5E0D
:1062600023470020D01B002000E100E000A00044F4
:106270000090004413B51F4B1B7803B9FEE70023C1
:106280001D4CCDE900336A4608231C4920680DF0F7
:10629000F1F9F0B91A4AD2F84031D2F840211F2B57
:1062A0004FF0010310D9203A9340019A1343019310
:1062B00008236A46114920680DF092F94FF0005307
:1062C000104A1A60FFF760FE9340009A1343009350
:1062D000EEE70D4B9842F1D1094AD2F84031D2F89D
:1062E00040211F2B4FF0010302D9203A9340DEE7F3
:1062F0009340ECE724470020D410002000710800F0
:10630000008000440B020FF00BE000F038B50025D0
:10631000AB6A0446B3F5804F10D21B6BB3F5804FC8
:106320000CD20748FFF762FEAB6A20461B6B5B6826
:106330009847BDE838400248FFF70CBF38BD00BFA2
:10634000EC1B002037B50025AB6A0446B3F5804F3F
:10635000019113D21B6BB3F5804F0FD20948FFF7A1
:1063600045FEAB6A20461B6B01999B699847044622
:106370000448FFF7EFFE204603B030BD4FF48174B0
:10638000F9E700BFEC1B002037B50025AB6A0446D7
:10639000B3F5804FCDE9002112D21B6B83B10A48BF
:1063A000FFF724FEDDE90021AB6A20461B6B5B6A28
:1063B000984704460448FFF7CDFE204603B030BDA1
:1063C0004FF40174F9E700BFEC1B002037B500253E
:1063D000AB6A0446B3F5804F019113D21B6BB3F542
:1063E000804F0FD20948FFF701FEAB6A20461B6BB6
:1063F00001999B6A984704460448FFF7ABFE204684
:1064000003B030BD4FF40174F9E700BFEC1B00206E
:1064100010B50024A36AB3F5804F10D21B6BB3F5FF
:10642000804F0CD20748FFF7E1FDA36A1B6B1B6B83
:10643000984704460348FFF78DFE204610BD01240F
:10644000FBE700BFEC1B002037B50025AB6A044614
:10645000B3F5804FCDE9002114D21B6BB3F5804F0B
:1064600010D20A48FFF7C2FDDDE90021AB6A2046E1
:106470001B6B5B6B984704460448FFF76BFE204696
:1064800003B030BD40F20114F9E700BFEC1B00205F
:1064900037B50025AB6A0446B3F5804FCDE900213E
:1064A00014D21B6BB3F5804F10D20A48FFF79EFD44
:1064B000DDE90021AB6A20461B6B9B6B98470446C5
:1064C0000448FFF747FE204603B030BD40F20114F8
:1064D000F9E700BFEC1B002037B50025AB6A044686
:1064E000B3F5804F019113D21B6BB3F5804F0FD2E0
:1064F0000948FFF77BFDAB6A20461B6B0199DB6BFC
:10650000984704460448FFF725FE204603B030BDF7
:1065100040F20114F9E700BFEC1B002005490A68AE
:106520001318054883428CBF4FF0FF320B601046B2
:10653000704700BFD01000200000012037B504686C
:106540000023032261790546207901F07FF91422A6
:106550003023217913FB012303F1A04303F57033AA
:106560001B686279D34003F001032370A379022BE7
:106570000ED100F0A5FA2A460749607900F0CAFA60
:106580000123024661792079CDE9003301F01AF93F
:10659000002003B030BD00BF7FBE020010B5012255
:1065A00043780178847830209A40054B00FB013312
:1065B0001CB942F210015A5010BD41F21001FAE725
:1065C00000C0035010B50122437801788478302050
:1065D0009A40054B00FB01331CB941F210015A509F
:1065E00010BD42F21001FAE700C003502DE9F04F50
:1065F0009A46564B85B01B7806460F461546DDF881
:106600003C909DF844B0DDF85080002B00F08D8068
:10661000072A00F28C800E9B002B00F08880B9F1D5
:10662000000F00F08480129BB3F5006F7FDC01281F
:1066300002D1109B002B7AD0454B03EB05131B7B3B
:10664000002B76D0434C1022002168462DF0B0FD7F
:1066500004EB45141022002F59D1394620462DF065
:10666000A7FD43F210036380BBF1000F03D1E37871
:1066700043F00303E370374A0E9B02EB451CCCE961
:106680000193129B6901013BC3F30A009DF84C3052
:10669000012E03F003034FEA836343EA001E5358BD
:1066A0002D48CDF800A000EA03004EEA0003535045
:1066B00041D113230CF1100ECCF80C309CE80F00E4
:1066C0008EE80F006FF00301DCF81C20109B61F3D3
:1066D0009F02012FCCF81C20CCF8143003D1CCF849
:1066E0001890CCF804300027194A290102EB051351
:1066F00042F80180159A28465A60694622469F60F2
:106700005E7301F07DFB384605B0BDE8F08F0021D7
:1067100020462DF04DFD4FF444736380BBF1000F14
:10672000A9D1E37843F03003A4E70C48ECE70C4828
:10673000EAE70C48E8E7B8F1000FD4D19CF8023042
:1067400068F304138CF80230CDE700BF2547002022
:10675000FC1B00207C1C00200F80FFF3028000F057
:10676000018000F0078000F038B5124B05461B7819
:10677000DBB1E0B125F0A1FC0F4A00231146147BE8
:1067800054B92B6001251A0101EB03131D738C50C2
:1067900025F099FC204638BD0133082B02F1100288
:1067A000EDD125F090FC0548F5E70548F3E70548ED
:1067B000F1E700BF25470020FC1B0020048000F00B
:1067C000028000F0018000F013B525F076FC002374
:1067D0000B4A147B7CB90133082B02F11002F8D16B
:1067E000019001F0C1FA074B01981C7025F06BFC79
:1067F000204602B010BD25F066FC0348F9E700BF53
:10680000FC1B002025470020058000F00D4B10B533
:106810001B78044693B1072812D825F04EFC0A4B8A
:1068200003EB04131A7B2AB100241C7325F04BFCE4
:10683000204610BD25F047FC0448FAE70448F8E775
:106840000448F6E725470020FC1B0020068000F0E6
:10685000028000F0018000F0154B13B5186800238A
:1068600001908DF8043025F028FC124B1C7824B1DF
:1068700025F029FC104802B010BD01221A7025F045
:1068800022FC0E4B01A81C731C7783F82C4083F864
:106890003C4083F84C4083F85C4083F86C4083F8BC
:1068A0007C4008238DF8073001F080FA2046E2E7AB
:1068B0007C48030025470020038000F0FC1B0020DB
:1068C0000A4A08B512785AB107280BD8084A02EBD1
:1068D00000131B7B43B1002101F05AFA002008BDD0
:1068E0000448FCE70448FAE70448F8E72547002095
:1068F000FC1B0020028000F0018000F0078000F007
:106900000A4A08B512785AB107280BD8084A02EB90
:1069100000131B7B43B1012101F03AFA002008BDAE
:106920000448FCE70448FAE70448F8E72547002054
:10693000FC1B0020028000F0018000F0078000F0C6
:106940000A4A08B5127852B107280AD8084A02EB59
:1069500000131B7B3BB101F0A1FA002008BD0548E4
:10696000FCE70548FAE70548F8E700BF254700209F
:10697000FC1B0020028000F0018000F0078000F086
:106980000D4B1B7893B1072812D889B10B4B03EB41
:1069900000131B7B73B10A4B1A6D012303FA00F03D
:1069A00010401ABF00200B700870704705487047F0
:1069B000054870470548704725470020FC1B00200C
:1069C00000000450028000F0018000F0078000F019
:1069D0000B4A10B512780C4662B107280CD859B191
:1069E000084A02EB00131B7B43B101F069FA2070E7
:1069F000002010BD0448FCE70448FAE70448F8E723
:106A000025470020FC1B0020028000F0018000F0E0
:106A1000078000F02DE9F843174B1F6D5B6D1F4099
:106A200000D5FEE701260025144CDFF85480DFF87E
:106A30005490374217D02368C8F850609BB1A168C2
:106A4000284601316268A1609847637B012B0AD117
:106A500048B909EB45131A7B60F341021A731A7F98
:106A600060F341021A770135082D4FEA460604F11A
:106A70001004DED1BDE8F88300000450FC1B0020A8
:106A8000002004507C1C002070B5044601250B4EEC
:106A900004B970BD94FAA4F0B0FA80F005FA00F3DE
:106AA00006EB001224EA03045368002BF0D0117B9C
:106AB00011B191689847EBE79847E9E77C1D002002
:106AC00008B5192000F03AFE28B14FF00072074BCC
:106AD000C3F880211A601A2000F030FE28B14FF070
:106AE0008062024BC3F880211A6008BD00E100E01B
:106AF00038B505460C4625F0E0FA0022044B03EBBE
:106B000005135C601A73BDE8384025F0DCBA00BF9D
:106B10007C1D0020F8B505460F46164625F0CDFA37
:106B2000104B05F0FC02D3F824140023EC1804F0F9
:106B30000304144321FA04FC1CF0010F07D00133B5
:106B4000042BF3D1FF2425F0BEFA2046F8BDFF2C1C
:106B5000F9D00122044B03EB0413C3E901761A7345
:106B6000F1E700BF00C003507C1D0020064BD3F8A6
:106B70002404D3F8202403F50053104000F05530CE
:106B8000C3F82004FFF780BF00C00350064BD3F8C2
:106B90002404D3F8202403F50053104000F0AA3059
:106BA000C3F82004FFF770BF00C00350024B196800
:106BB000024B18680CF03EBCD8100020D410002006
:106BC00037B5920004460D4601922DF01DFD431C81
:106BD0000BD060B929462046019A2DF0B2FA002860
:106BE000044808BF002003B030BD0348FBE703485A
:106BF000F9E700BF10E000F021E000F024E000F031
:106C000010B504462DF0F8FC431C10D088B901F0F3
:106C100007FA234620F003002044984201D10020C7
:106C200010BD53F8042B0132F7D00348F8E70348AE
:106C3000F6E70348F4E700BF0EE000F021E000F0C3
:106C400024E000F008B525F029FA014B186008BDD2
:106C5000BC250020014B186825F024BABC25002073
:106C600041F6713310B5104C104AA0428CBF4FF45E
:106C700080140024D169D363936801F4803123F434
:106C80004013234393600A4B98420A4BD3F81822CF
:106C90008CBF42F0020222F00202C3F8182211B1A6
:106CA0000022024BDA6310BD005A6202000003505A
:106CB00080F0FA0200C007502E4B98424AD022D8EA
:106CC0002D4B984240D014D82C4B984239D00AD83A
:106CD0002B4B984232D02B4B98422FD02A4B9842C4
:106CE0002CD000207047294B9842FAD1284B186FBE
:106CF0007047284B98422AD0274B9842F1D1244B19
:106D0000D3F880007047254B98422BD009D8244BEC
:106D1000984223D0234B9842E3D11D4BD3F88C00EB
:106D20007047214B984221D003F5740303F51053AB
:106D30009842D6D1164BD3F898007047144B986DF3
:106D40007047134B586E7047114B586F7047104B7C
:106D5000986F70470E4BD3F8840070470C4BD3F8F4
:106D6000880070470A4BD3F890007047084BD3F85F
:106D7000940070470048E8010024F400C0CF6A0086
:106D800080841E0000093D0040420F00405DC600A7
:106D90000080E00FC0EA210180BA8C01007E56031A
:106DA00080D54302006CDC020090D00338B5134B51
:106DB0000546D3F820010C4600F00700042804D84B
:106DC000DFE800F01A0A0E1216000023184605B17B
:106DD000286004B1236038BDFFF736F80423F6E7D6
:106DE000FFF76EF80323F2E7FFF784F80523EEE7D9
:106DF000FFF77CF80223EAE70123E8E70080005070
:106E000037B50C460021124A0191D2F8802105467F
:106E100002F00302022A0ED0032A11D0012A14D153
:106E200001A8FFF7C3FF0D230DB1019A2A6004B139
:106E3000236003B030BDFFF75DF805230190F3E751
:106E4000FFF754F802230190EEE70B46ECE700BF92
:106E50000080005038B5104B0546D3F840310C4641
:106E600003F00303022B0BD0032B0DD0012B0FD10A
:106E700024F0AAFF082305B1286004B1236038BDBF
:106E8000FFF77CF80723F6E724F0A1FF0923F2E7D8
:106E900001230020EFE700BF0080005038B5104B01
:106EA0000546D3F860310C4603F00303022B0BD0E8
:106EB000032B0DD0012B0FD124F086FF082305B141
:106EC000286004B1236038BDFFF758F80723F6E7C0
:106ED00024F07DFF0923F2E701230020EFE700BF44
:106EE0000080005038B5144B0546D3F800020C461C
:106EF00000F00700042804D8DFE800F01B0A0E1297
:106F000016000023184605B1286004B1236038BD7F
:106F100024F05AFF0823F6E7FFF730F80723F2E7DB
:106F200024F055FF0923EEE7FEF7B4FF0C23800A97
:106F3000E9E70123E7E700BF0080005038B5144BB4
:106F40000546D3F808020C4600F00700042804D8D0
:106F5000DFE800F01B0A0E1216000023184605B1E8
:106F6000286004B1236038BD24F02EFF0823F6E723
:106F7000FFF704F80723F2E724F029FF0923EEE7DF
:106F8000FEF788FF0C23800AE9E70123E7E700BF4B
:106F90000080005038B5104B0546D3F840320C46FF
:106FA00003F00303022B0BD0032B0DD0012B0FD1C9
:106FB00024F00AFF082305B1286004B1236038BD1E
:106FC000FEF7DCFF0723F6E724F001FF0923F2E7D1
:106FD00000231846EFE700BF0080005038B5104B83
:106FE0000546D3F800310C4603F00303022B0BD007
:106FF000032B0DD0012B0FD1FEF762FF032305B148
:10700000286004B1236038BDFEF7B8FF0723F6E718
:1070100024F0D8FE0623F2E701230020EFE700BFAB
:1070200000800050032814D005D8012805D002287C
:1070300009D0002005E00F28FBD1084B186FC0F3E2
:10704000013001307047054BD3F89000C0F3046065
:10705000F7E7024B186FC0F38020F2E70080005082
:107060001FB500230193252817D8DFE800F0131A75
:107070001D262B353A50555A5F646977161A3F160C
:1070800016551A262B26351A5026773A3A3A3A26BA
:1070900026265A5FFEF7E4FE0190019805B05DF8E0
:1070A00004FBFEF7F7FEF7E7FEF7DAFE02460220E2
:1070B000FFF7B8FFB2FBF0F0EEE7FEF7EBFE02469B
:1070C0000320F5E7FEF7E6FE02460320FFF7AAFFDE
:1070D000B2FBF0F04008DFE7002101A8FFF790FEC7
:1070E000DBE7002101A8FFF761FED6E702934FF02E
:1070F000E0231B695B0705D5FEF7CCFE0290029BDF
:107100000193CAE703A902A8FFF7A4FEF7E700214D
:1071100001A8FFF79FFEC0E7002101A8FFF7BEFE10
:10712000BBE7002101A8FFF7DDFEB6E7002101A8BB
:10713000FFF704FFB1E7002101A8FFF74FFFACE71D
:10714000094BD3F8803003F00303022BA9D0032BA3
:1071500001D00020A0E7FEF7CDFE9DE7002101A8A9
:10716000FFF718FF99E700BF0080005008B5012025
:10717000FFF776FFBDE80840034988428CBF022133
:107180000121032000F002B880F0FA02032810B5B4
:107190000C4627D004D8012804D0022817D010BDEF
:1071A0000F28FCD124F05DFF24F063FF124B013C5B
:1071B000196F21F4405141EA04341C67FEF76AFE5E
:1071C0000021FFF74DFDBDE81040FFF7CFBF0A4B90
:1071D000013CD3F8901021F0F85141EA0464C3F85F
:1071E0009040DCE7044B013C196F21F4806141EAD7
:1071F00084241C67D3E700BF008000501FB5002324
:107200000193252821D8DFE800F013202020202A30
:107210002F454A4F54595E7120203420204A2020A7
:1072200020202A204520712F2F2F2F2020204F543F
:10723000314B1B6F03F00703013B032B05D8DFE83D
:1072400003F00C02080A04230193019805B05DF8CD
:1072500004FB0323F8E70623F6E70223F4E7002004
:1072600001A9FFF7CDFDF0E7002001A9FFF79EFD82
:10727000EBE702934FF0E0231B695B0705D5FEF7B0
:1072800009FE0B230393039BDEE703A902A8FFF784
:10729000E1FDF8E7002001A9FFF7DCFDD5E70020BC
:1072A00001A9FFF7FBFDD0E7002001A9FFF71AFEB7
:1072B000CBE7002001A9FFF741FEC6E7002001A9A6
:1072C000FFF78CFEC1E70C4BD3F8803003F00303CB
:1072D000022B03D0032B05D00023B5E7FEF7DAFD20
:1072E0000B23B1E7FEF706FE0523ADE7002001A959
:1072F000FFF750FEA9E700BF0080005070B50C46B4
:10730000252848D8DFE810F026004700470047004E
:1073100047005B006B009B00AB00BB00CB00DB00B9
:10732000EB00FC00470047007B0047004700AB0034
:1073300047004700470047005B0047009B004700AD
:10734000FC006B006B006B006B00470047004700C0
:10735000BB00CB008B1E042B2ED8DFE803F02A1DC8
:10736000032D27000025022624F07BFE24F081FE59
:107370006B4A136F23F0070333431367FEF78AFD4D
:107380000021FFF76DFCFFF7F1FE25B9032C02D1B8
:107390000122644B9A6270BD0122634B0E469D6AC6
:1073A00003F58053C5F340059A62DDE70025042606
:1073B000DAE700250126D7E700252E46D4E78C1E04
:1073C0000B2C8CBF0021594B554A98BF195DD2F840
:1073D000803123F003030B43C2F88031DBE78C1EBE
:1073E000032C8CBF0021524B4D4A98BF195DD2F837
:1073F000203123F007030B43C2F82031CBE70B29E0
:1074000012D00ED8CC1F022CC5D84A4A536A43F07A
:10741000010353624FF0E022136923F00403136168
:10742000B9E70E29B7D1F0E7424A536A23F00103C6
:1074300053624FF0E022136943F00403EFE7CC1FDF
:10744000022C8CBF00213C4B354A98BF195DD2F805
:10745000403123F003030B43C2F840319BE7CC1FBC
:10746000022C8CBF0021354B2D4A98BF195DD2F8F4
:10747000603123F003030B43C2F860318BE7CC1F6C
:10748000052C8CBF00212E4B254A98BF195DD2F8E0
:10749000003223F007030B43C2F800327BE7CC1F16
:1074A000052C8CBF0021274B1D4A98BF195DD2F8CF
:1074B000083223F007030B43C2F808326BE7CC1EF7
:1074C000042C8CBF0021204B154A98BF195DD2F8BF
:1074D000003123F003030B43C2F800315BE70529B9
:1074E0000CD00B2914BF002102210D4AD2F88030A4
:1074F00023F003030B43C2F880304CE70321F4E789
:10750000CC1F022C8CBF0021104B054A98BF195D7F
:10751000D2F8403223F003030B43C2F840323AE77B
:107520000080005000E0005000C00050A44803005C
:10753000B048030000C00750B4480300B44803003B
:10754000B7480300B7480300BD480300B448030030
:1075500038B50546FFF7B0FB214B04465A68012AAF
:1075600004D120494A609A699207FCD10020FFF7B4
:1075700045FE042803D124F074FD24F07AFD1A4A54
:1075800024F04073954221D0184A954221D0184AE0
:10759000D16811F0060FFBD190689360916803F4F5
:1075A000F81301F4F8118B4216D12846FEF752FC6D
:1075B0000020FFF723FE042810D1FEF76BFC00210A
:1075C000FFF74EFBBDE83840FFF7D0BD43F0007336
:1075D000DDE743F08073DAE79060E9E738BD00BF8C
:1075E00000C0015000E0015040420F0080841E00A6
:1075F0000000015070B504460020FFF7FFFD03288E
:107600007CD045F60E030221414AC2F88030414B3E
:107610009962012103F580539962936DD903FCD4DB
:10762000D4E900131B0543EA0163E17B94F822507F
:107630000B43217B94F8236043EA0143617B43EAD7
:107640000133A17B43EA811313619169D4E90403F7
:107650001B0643EA806301F000410B43A17EE07EFC
:107660000B43217E43EA0143617E43EA0123936198
:10767000136AE26923F00D03002A0CBF00210821E0
:1076800043EA020343EA8003214A43EA0103136207
:1076900094F820304FEA431331D1906A94F82110C6
:1076A00020F0330043EA0113034343F001039362E4
:1076B000194B916D33EA0101FBD10221154B9962FF
:1076C000936D5B00FCD41069A36820F4700040EA5D
:1076D000035010614FF000420E4B9A611DB9022217
:1076E00003F580539A6216B901220C4B9A6294F802
:1076F00024301BB1064B0A4AC3F8802070BD916A42
:1077000021F0330131430B4343EA45039362EEE733
:1077100000C0005000D000500300014000E00050C5
:10772000F1A7FFFF014B93F90000704726470020A7
:10773000014B1880704700BFF4140020054B42092C
:1077400053F8223000F01F0023FA00F0C04300F08D
:107750000100704700E100E00A4A10B513690446D1
:1077600043F00403136102F031FD24F0AFFC30BF9D
:1077700024F0ADFC02F03EFD1CB9BDE81040FEF760
:1077800089BB10BD00ED00E0084A10B5136904463E
:1077900043F00403136102F019FD30BF02F02AFD2B
:1077A0001CB9BDE81040FEF775BB10BD00ED00E050
:1077B000034A0179D36E23F030030B43D36670473D
:1077C00000400050072AF7B50D4614461F460FD853
:1077D00003219600B14000FA06F21548019124F009
:1077E00079FC05F0030201991248B24024F072FCC2
:1077F000114B12499DF82000002F08BF19460123A4
:1078000003FA04F40C600E4B0E49002808BF0B4627
:107810001C600D4B9DF82400C3F820441031A3F6E2
:10782000DC33002808BF0B461C6003B0F0BD00BF6E
:1078300000C4035008C4035010E4035010D4035094
:1078400014D4035014E4035000E00350F8B5044688
:107850000D461F4616464AB101238B403021194A76
:1078600001FB0022FFB141F21001535004EB44032D
:10787000072D4FF00F014FEA031317D8A80006FA9F
:1078800000F281401048184424F024FC56B901212C
:1078900030230C4801FA05F503FB040077B141F2EF
:1078A0001003C550F8BD42F21001DEE7A5F1080053
:1078B000800006FA00F281400448E4E742F2100337
:1078C000EFE700BF00C0035004C003500CC00350DA
:1078D000012200F58053F0B55A60284B284AC36056
:1078E00043691340FCD18361C0F89830436913F4B5
:1078F000401FFBD14369DA052CD4836F53BB436926
:107900009B0529D4D0F8883033BBC26FD0F88C20C7
:10791000012200F500514A6030221A4C8360A042D7
:107920000CBF02240024036142F26006C3629C463D
:1079300003620267C0F880201A46134FA2420ED19C
:107940000024104A904201D1102B10D10F4B4B62F2
:107950008B62F0BD436FCDE7D0F88430CFE700EB0A
:107960000215AE6401322F65C5F854C0E6E703F195
:10797000280540F825400133E4E700BF120002006B
:10798000520001000040005A00C002808F330F8077
:10799000084608B569B91820FFF762FBB0B10C4B77
:1079A000984206D90B4B9B68C3F302730133B0FBBB
:1079B000F3F0094900F5742000F23F20B0FBF1F02C
:1079C00001387F2828BF7F20C0B208BD0120F0E722
:1079D000005A62020040005A40420F0010B50B4CA2
:1079E0008C4228BF0C461AB91820FFF739FB024613
:1079F000601E0244B2FBF4F0A24228BF00F1FF3047
:107A0000032828BF0320C0B210BD00BF005A620285
:107A100010B51048104C002B18BF2046884228BFD4
:107A2000084604461AB91820FFF71AFB02469DF8CB
:107A300008000130B2FBF0F2601E0244B2FBF4F326
:107A400040F2FF30A24228BF03F1FF33984228BF23
:107A5000184610BD80969800404B4C002DE9F04F21
:107A60002DED068BB64D0C4616462946002285B0F4
:107A70000746FFF7B3FF63790122984238BF1846E3
:107A800007F500535A605FFA80F8207950B9182042
:107A9000FFF7E6FAA842014628BFB0FBF8F13846E6
:107AA000FFF776FFE3784FEA08721B0102F0E0422D
:107AB00003F0300313430004227800F4FE00034374
:107AC0000AB143F0020362780AB143F00403A278DA
:107AD0000AB143F008034FF00009BB60E388228934
:107AE0003B616389DFF864A243EA02433B62574586
:107AF00002D1B9F1020F08D1012307F580577B604D
:107B000005B0BDEC068BBDE8F08F002234788D48BF
:107B10008D49B568944218BF014623468B48CDF87D
:107B20000080FFF775FF07EB09118B6CADB223F0F6
:107B3000405323F4EE2385422A4623F01F0304F02A
:107B4000030543EA0503757838BF0246AD0005F02A
:107B50001C051D43B378F0781B0303F4E0432B436B
:107B6000050405F4E0252B4335794FEA091C2D0760
:107B700005F040552B438B648B6C7549C3F302337E
:107B8000013B042B00F29180DFE803F08F8F8F031D
:107B90000300D1F8843109F1050B002C7CD10AEBEC
:107BA0000C039C6CC4F30234631E012B684B7FD81A
:107BB000DFED687AD3F88041A4B223044FF00103CB
:107BC000D444DCF8481024F4C045C1F3820101F12B
:107BD000010E03FA0EFE07EE10EA4FEA8545B8EEF5
:107BE000C79AF6EE008A5A4B48BF45F00045002977
:107BF0007CD1D3F88C311BB208EE103AB8EEC88AAB
:107C000037EE888A9FED54AAF7EE049A002840F0D8
:107C10008380039224F0E9FA07EE900AF8EE677A7F
:107C200087EE8A7AC9EE877A67EE887A039ADFED63
:107C30004B6A86EE897ADFED4A6A27EE267AF1EE04
:107C4000006AB5F1004F07EEA67A0BD0DFED456A6A
:107C500007EE904A37EE266AFAEEE87AB0EE667AD8
:107C600017EE867AB5EEC07AF1EE10FACABFB1EE21
:107C7000477A38EEC77A37EE687AFDEEC77A17EEA4
:107C8000903AB3F5003F52DB6FEA55456FEA454540
:107C90004FEA0B134AF80350C2F309020AEB0B1127
:107CA0004A6009F10109103621E7D1F8803172E705
:107CB000032C0AD1D3F88041D3F88C31240C1B1447
:107CC00007EE903AF8EEE77A77E7042CD3F8844190
:107CD0000BBFD3F88C31D3F88C311B141B1407BFA6
:107CE000A4B25B00240C03EB4303E9E7D3F8901143
:107CF000D3F888310FFA81FC07EE10CAB8EEC77AC4
:107D000077EE677A29EE287A1BB287EE878A07EE2C
:107D1000903AF8EEE77A73E7D6ED037AF8EE677AF1
:107D200087EE8A7AC9EE877A67EE887A7FE713F55D
:107D3000003FAABFC3F3110345F400351D43A7E775
:107D4000005A6202404B4C00809698000040005A56
:107D50000080E00F0000000000007A440000804333
:107D600000002044000000494FF40012064BC3F805
:107D70008020BFF34F8FBFF36F8F0022FF21034B93
:107D80005A6599625A60704700E100E000000450B3
:107D9000044A054B002918BF1346012202FA00F0DD
:107DA00018607047402004504010045030B50478EB
:107DB00045788178C27801200F4B41EA05412406BD
:107DC00058609C609961FF21996200219963196450
:107DD0004FF0004159654FF0FF314FF4001003F5AB
:107DE0000053196505491301DBB2C1F8800181F820
:107DF0001533086030BD00BF0000045000E100E012
:107E00002DE9F04101250C46C3B2DFF888E0D1F836
:107E100000809D408F7ACB7A94F80DC0097BCEF814
:107E200050500EF5005E4EF820804FF0300E184E88
:107E30001B050EFB006043EA074343EA415322F06F
:107E40000302C0F860C0C365026724F036F9736DA1
:107E50002B437365237A13B1336C2B433364637AFA
:107E600013B1B36B2B43B3632279A37943EA024383
:107E7000084A93616179E37943EA014306498B61DA
:107E8000034B55639D64BDE8F04124F01CB900BF6D
:107E900000000450002004500010045010B50124CC
:107EA000C0B2844024F009F9044B5A6D22EA04025E
:107EB0005A659C62BDE8104024F005B900000450EA
:107EC00010B50124C0B2844024F0F7F8074BDA6AF9
:107ED000224209D15B6B34EA03030CBF0124002466
:107EE00024F0F1F8204610BD0024F9E7000004500A
:107EF00041F67132034BDA63012203F50053DA6075
:107F0000704700BF0000035041F671320121044B5D
:107F1000DA6303F50052D1600022DA63704700BFD4
:107F200000000350014BD3F894007047004000500C
:107F3000CB784A7810B55B010C7843EA82030A7962
:107F4000234343EA02130C22424302F1B04213637B
:107F5000012C02BF8A78024B43F8202010BD00BFDD
:107F6000D080035008B54FF0B0435A6802B960B1F1
:107F70005B680BB124F061F94FF0B04130B10120E2
:107F8000074B586024F059F9C86008BD24F055F932
:107F90000223CB6024F051F90122024B5A60F4E72E
:107FA00000100058002000584FF0B0435B6870B5D7
:107FB0000BB124F042F90121104B457859608378C8
:107FC0000679002BC37814BF02240024002B14BFB1
:107FD000042200224379DB0043EA06132B432343A8
:107FE00013434FF0B0429360054B59600378002B68
:107FF00014BF0B460223D36070BD00BF00200058A1
:1080000000100058054B5B69C3F38512827003F0C2
:108010003F021B0B42700370704700BF00C0075047
:108020000120034B9B680A3303F01F0398407047FD
:108030000080E00F0D4B984208D1A3F50033C3F840
:108040008411C36D43F08003C3657047084B9842A9
:1080500004D1A3F51033C3F89411F2E7054B98420D
:1080600004BFA3F52033C3F8A411EAE7008005504C
:1080700000C005500000065070B5054616461C4667
:1080800019B90320FEF7ECFF0146402C1BD003D8A2
:10809000DCB1202C1BD070BD602CFCD1042303FB71
:1080A00006F2560806EB4113B3FBF2F3094A203BF4
:1080B00002EAC303AA6822F06002AA60AA68144315
:1080C000AC60EB61E7E70623E9E71023E7E7082365
:1080D000E5E700BFF8FF7F00012200F5805310B5EF
:1080E0005A6040F6AA6341F2050243610023124937
:1080F0008360C365C26000F500520361C361C3645D
:1081000091640E498365884206D00D4CA04203D08D
:1081100004F58044A0420BD18842036506D0084B89
:10812000984203D003F58043984201D10023436570
:108130000123536010BD00BFFFFF01000080055008
:1081400000C0055070B50D46FFF7C6FF012300F5CE
:1081500080567360AB7C04461BB1836843F0804358
:108160008360EB7C1BB12046297DFFF763FF2A8AE1
:108170006B7B20461343EA891343E3602B7BD5E9ED
:108180000112FFF779FF6B7D1BB1A36843F48033C5
:10819000A360AB7D1BB1A36843F40043A360EB7DF8
:1081A0002A7E1B07120502F4E00203F0E0431343AA
:1081B000A3656A7E931E012B214B20D89C421AD0C6
:1081C00003F580439C4218D003F580439C420CBFCA
:1081D00002234FF0FF3341F2AC5102205B0103F167
:1081E000A04303F570335850032A23D10423F365C9
:1081F0002B78636170BD0023EDE70123EBE79C4220
:1082000014D0104B9C4213D003F580439C420CBF0A
:1082100002234FF0FF3342F2AC5102205B0103F125
:10822000A04303F570335850012ADEE70023F2E73C
:108230000123F0E7042204F50053DA65D8E700BF14
:108240000080055000C0055038B50446054D28F0A3
:10825000C5FF0FCC0FC594E80F0085E80F00002084
:1082600038BD00BF7026002047F6FF739A42F0B574
:1082700066D0022966D8344DCF0015F8313005EBB1
:10828000C100012B847813D10025C3781B1B9D42AC
:1082900002D3E018C0B2F0BD591B4668A3EB5101F0
:1082A00036F911609642D4BF0D4601F1FF33EEE777
:1082B00040680028EFD0B0F90030934204DBB0F9F9
:1082C00002309342B8BF134682883D44FF2A19BF4B
:1082D000C8214FF0280CB0F90610B0F908C0A1EB86
:1082E00003020CBF0126002692FBFCF26D7832449B
:1082F00012B2954201DD002A01DA6A1E12B24FF471
:108300007A7700EBC206F188B668013213FB01618F
:1083100012B221EAE1715C319542B1FBF7F104DD63
:1083200000EBC206B6888E42EBD200EBC20232F8F6
:10833000040C884228BF0846A04238BF2046A9E75F
:10834000FF20A8E70020A6E7702600200229F0B54C
:1083500053D82B4800EBC10410F831106368012991
:108360000FD1E078A478904294BFC4EB0001C4EB35
:108370000201001BCAB28242C8BF002233F91200B8
:10838000F0BD002B39D0A178914202D3B3F902009D
:10839000F6E7E178B3F900009142F1D99988647861
:1083A000A1F1FF06013C714203F10405E4B2714101
:1083B00003F10C071FFA82FCCEB2B44216D805EBCB
:1083C000C1014FF47A756A43B1F902404968521A03
:1083D00004EBD47102EB610292FBF4F29042CFDB2A
:1083E000B3F902009042CBDC10B2C9E737F831E0B4
:1083F0004E1CE645E3D33146DEE70248C0E700BF46
:10840000702600200080FFFF08B50448FFF71CFF1E
:10841000BDE80840012028F004BF00BFC4480300A5
:108420007FB51422002101A82BF0C2FE044B01A944
:108430004FF0FF30029328F031FF07B05DF804FBE6
:10844000006A18002DE9F0418CB08846DDE912760B
:108450001D460446002847D0002945D0002F43D0B0
:10846000002E41D013F00F033ED120482049A360D5
:10847000002A18BF0146E361C4E90013404609A978
:1084800024F075F868BB2046099923F0F2FE2946CE
:10849000204623F0EEFE6946404624F007F900BB73
:1084A0006946204623F0D1FE404603A924F009F98D
:1084B000B8B9204603A923F0C8FE06970127204635
:1084C00045F0005506A90797089523F0BEFE204603
:1084D00009A909960A970B9523F0C1FE204623F0BF
:1084E000D0FF0CB0BDE8F0812120FAE700010104C3
:1084F000000100047FB50E461D460446F0B102B9E6
:10850000E3B901230192029345F000530393002342
:108510000B4AA360C4E90023E361204601A923F0CC
:1085200094FE3146204623F0A4FE2046294623F03F
:10853000A0FE204623F0A5FF04B070BD2120FBE77C
:10854000000009430F4B984209D010D80E4B9842B7
:1085500005D020F48070A3F5806398420FD10B887A
:10856000B3F5105F0CBF00206FF085007047074B1C
:108570009842F4D020F40070A3F58073EDE76FF01B
:10858000850070470010C004004440040012C0047D
:108590002DE9F04F93B09346DDE91E759846DDE96D
:1085A0001C2381468A46209E29B96FF08604204606
:1085B00013B0BDE8F08FBBF1000FF6D00FB9002D5E
:1085C000F3D10AB9002BF0D116B9219B002BECD1C5
:1085D000229B002BE9D049464046FFF7B3FF0446F3
:1085E0000028E4D10146202202A82BF0E1FD202240
:1085F00021460AA82BF0DCFD02A823F055FF002835
:108600003DD15A46514648460AAB24F0C8F80446C4
:108610000028CCD10A9824F07EF804460028C6D160
:1086200015B9229B1860C2E7B74210D27B199E424F
:108630000DD2219B9D42B8D82A46394630462BF0B0
:108640009DFD174B984518D06FF08504AFE7144B8C
:108650009845F9D1219B9D42A7D815F00F08A4D1C8
:10866000CDE900762B4642460AA902A8FFF7EAFEAA
:10867000074638B9229B1D6099E73746EDE76FF052
:10868000920494E741463046219A2BF091FD229BBB
:10869000012FC3F80080F2D16FF08B0487E700BF91
:1086A000004440042DE9F04F93B08146DDE91C758C
:1086B000934698468A461E9E29B96FF08604204646
:1086C00013B0BDE8F08F002AF7D00FB9002DF4D118
:1086D00016B91F9B002BF0D1209B002BEDD04946F3
:1086E0004046FFF72FFF04460028E8D1014620222C
:1086F00002A82BF05DFD202221460AA82BF058FD90
:1087000002A823F0D1FE002849D15A4651464846D6
:108710000AAB24F044F804460028D0D10A9823F08C
:10872000FAFF04460028CAD115B9209B1860C6E795
:10873000B74210D27B199E420DD21F9B9D42BCD8DE
:108740002A46394630462BF019FD184B98450BD078
:108750006FF08504B3E7154B9845F9D11F9B9D42F7
:1087600003D96FF08904AAE7374615F00F08A4D1A2
:108770002B460122CDE900760AA902A8FFF762FE86
:10878000209B1D600546002899D0414630461F9A1F
:108790002BF00EFD209B012DC3F8008002D06FF05E
:1087A00092048CE76FF08B0489E700BF004440041B
:1087B00013B50024064A6846536F23F0010353673C
:1087C00000948DF80440FEF7F3FF204602B010BD80
:1087D0000040005008B50248FEF7BAFE002008BD70
:1087E00000B4C40430B58BB06C46174D0FCD0FC428
:1087F0000FCD0FC495E8030084E80300134BD3F8B2
:108800004C21120318D4D3F85041E4B28DF819402A
:10881000FEF788FF204480F308008DF818000C480C
:10882000FDF754FB6846FEF7E5FE4FF4FA70FEF7DD
:108830007FFF00200BB030BD064B1C884FF6FF7346
:108840009C4208BF8C24E1E7B04903000080E00FA0
:1088500000F049020001E00F6FF00402502110B552
:108860000A480B4C12F0800FD3B21BBF03F00F036A
:10887000043BA3181B1802F101020CBF83F800137C
:1088800019763D2AEED1002010BD00BF00ED00E0BA
:1088900000E100E010B5044623F000FC024B1C6030
:1088A00023F000FC002010BD9026002010B523F01E
:1088B000F5FB034B1C6823F0F5FB204610BD00BF01
:1088C0009026002013B513460C4618B90192FFF705
:1088D000EDFF019B01462246044809F085FC002873
:1088E000D4BF3720002002B010BD00BF65C8020011
:1088F00030B51446054687B0104623F0E3FF6369A0
:10890000024683423CBFD4E903315B181B1A7BB19A
:108910000F49284603910021CDE901310123049438
:108920000093D4E9001323F051FB002007B030BDC1
:108930000122627694F82D20002AF6D084F8353092
:108940001321E369204698472046636A9847ECE77D
:10895000F18800002DE9F04788B0044688461746A4
:10896000994623F0AAFB8246002F7AD0237E03F09B
:10897000FF02002B00F0A280204623F0A3FF6669CF
:10898000B04205D1637ED4E903521544AD1B01E02A
:10899000F9D9851BBD4228BF3D4623F08EFB94F8D4
:1089A0002D300646002B6DD12A46404661692BF0DA
:1089B000D8FB63692F462B44636121E0037803F001
:1089C000FD0111295BD1216B814205D1A3F1110178
:1089D0004B424B4184F83430013F6369216B0132D3
:1089E0008B4203F1010308BF236363619542606911
:1089F000E4D1D4E90323216B1344994200D12263CB
:108A00000025D4E9032361691344994208BF6261D8
:108A1000207A6576FDF754FF204623F053FF636903
:108A2000834232D1257694F82D30E568656103B133
:108A300025632046636A9847214B2A460393002307
:108A400002932369216801930123207A00930494FF
:108A5000636823F0BBFA207AFDF752FF304623F01B
:108A600032FB5046C9F8007023F02DFBD9F80030D6
:108A7000002B0CBF1B20002008B0BDE8F08708F8D1
:108A8000013BAAE72F460022B0E70123207A237694
:108A90000DF11E01FDF79CFF9DF81E30002BDAD072
:108AA0000DF11F01207AFDF76BFF9DF81F100029C3
:108AB000D1D12246207AFFF71BFFCCE71746D0E73B
:108AC000F1880000002808DB0123420900F01F00A4
:108AD00003FA00F0014B43F82200704700E100E088
:108AE000002809DB0122430900F01F0002FA00F010
:108AF000024A603342F82300704700BF00E100E003
:108B000070B504460568FFF7D1FE844202D100200B
:108B1000FFF7C0FE95F93600FFF7E2FF95F9363012
:108B2000002B0DDB01215A0903F01F0301FA03F3A7
:108B30001849203241F82230BFF34F8FBFF36F8FB7
:108B400095F93700FFF7CCFF95F93730002B0DDB97
:108B500001215A0903F01F0301FA03F30D492032E2
:108B600041F82230BFF34F8FBFF36F8F287AFDF7A4
:108B7000E7FE287AFDF74AFEFDF726FE0023284689
:108B8000C4E90033C4E90433A360AB6ABDE87040B4
:108B9000184700BF00E100E02DE9F0410C46154602
:108BA000064686B04022002120461F462BF000FBDF
:108BB00095E8030000232A692376EB6884E8030024
:108BC000C4E904232A7DE36084F82C20AA7D236372
:108BD000012384F8343084F835300C9B84F82D2040
:108BE00023620D9BE76163620E9BA3622B7A84F87C
:108BF00036306B7A84F837302D4B346073602D4BF0
:108C0000B3602D4B33612D4B73612D4BF360FDF73A
:108C100023FE38B12B4B984204D01024204606B0D6
:108C2000BDE8F081002104F10800FDF79DFD074635
:108C30000028F2D14FF00108234B3362234B84F814
:108C40003C80B361224BF3619DF8403084F83900D9
:108C500084F83B309DF83C30204684F83A30697DFA
:108C600084F8388023F03EFE95F90900FFF738FFBD
:108C700095F90900FFF726FF164B0494CDE902731E
:108C80002369CDE900836368E2682168207A23F0D4
:108C90009DF904460028C0D195F90800FFF720FF90
:108CA00095F90800FFF70EFF3046FFF7F3FDB5E733
:108CB00035C9020055890000B3C80200B9C80200D6
:108CC000018B0000038000F089C80200E5C80200A3
:108CD000BFC80200F18800002DE9F0414FF0010803
:108CE0001C46584B86B00293574B0C9D0193574B33
:108CF000174600930A46CDE903882946544BFFF7EF
:108D00004BFF0646002876D1236804222B64237982
:108D100085F84430A17985F84610607985F84500DA
:108D2000237A85F84830E37985F84730A37A85F8C7
:108D30004A30637A85F84930237B85F84C30E37AF2
:108D400085F84B304346FEF781FD43460222217AE7
:108D5000E079FEF77BFD3E7039462068FFF7F2F9B7
:108D60001421A27B3B4B03EB4210C0F8AC1594F8E6
:108D700006C061792E3203EB421341EA0C4159607F
:108D8000227AE37943EA0243C0F8BC3585F84D60A6
:108D90007B7E032B53D8DFE803F01F02324D012303
:108DA000002785F84D3000230222A17A607AFEF771
:108DB0004DFDA17A627AA37B42EA014241F2B451AD
:108DC0005B0103F1A04303F570335A50042223687A
:108DD00003F58053DA65AFB963792A6C85F84530BD
:108DE000A379052185F84630D36C206843F004034D
:108DF000D36423F065FA304606B0BDE8F081022363
:108E000085F84D3000230422217BE07AFEF71EFD19
:108E100041F2AC520221A37B5B0103F1A04303F5B5
:108E200070339950217BE27A42EA014241F2B85113
:108E30005A50D1E70323012785F84D30B3E72326A5
:108E4000D9E700BF5FCA020053CA0200E3CA0200AA
:108E5000D7CA020000C0035007B501F033FC6A46D0
:108E600001F096FC18B15221034800F057FBDDE9F0
:108E7000000103B05DF804FBD849030008B501F018
:108E80005DFB18B17A21024800F048FB002008BDC4
:108E9000D849030008B500F0C7FA0E4A536A43F4F4
:108EA00070235362EFF308834FF0CD310A4A043B3D
:108EB00093420BD20222094B1A6700F0C9FCFFF75C
:108EC000DDFFBDE808400648FFF7BEB943F80419C6
:108ED000EEE700BF00ED00E0000000200040005081
:108EE000C448030007B5042200200DEB020128F05E
:108EF00051F9042804D04FF4BF71044800F00EFB70
:108F0000019800F051FC03B05DF804FBD849030060
:108F100008B500239B6A1B0C1B0433B10B4A934218
:108F200003D043210A4800F0F9FA00239B6A13F4A6
:108F3000404F03D04621064800F0F0FAFDF762F9F1
:108F4000002814BF8620002008BD00BF0000E10FEC
:108F50003A4A0300002300B59B6A8FB09B69DB038C
:108F600003D400200FB05DF804FB01A8FDF7CEF993
:108F7000059A002AF5D091680D4BB1F5803F28BFC6
:108F8000890A508834BFD980D980118828BF40F021
:108F900010001980516858809980D1680448996000
:108FA0001169D9605169127E19611A75DAE700BF3B
:108FB000CC28002008B500239B6A9B69DB0303D4FF
:108FC000B821094800F0AAFA084B4FF40E7208497C
:108FD0001868FDF7D9F928B1BDE80840BD2102485D
:108FE00000F09CBA08BD00BF3A4A0300E428002004
:108FF00094260020002108B58B6A986910F480300F
:109000000BD00848FDF7E2F940F20123984205D061
:1090100040F20323C31A5842584108BD4FF6FF706F
:10902000FBE700BF9426002008B500239B6A9B69DC
:10903000DB0306D501210448FDF784F908B9FCF7E4
:10904000CBFF012008BD00BFE4280020082310B595
:1090500048400A0A0649C0B200F00104400804B1C1
:109060004840013B13F0FF03F6D1504010BD00BF54
:109070002083B8ED2DE9F0470025144C144FDFF89C
:109080005890DFF8588022464946002057F8043BA4
:10909000EEB223F0ECFB2378A2460134002BFAD188
:1090A0009AF801307BB10B4906F00306032E08BF86
:1090B0004146002023F0DBFB9AF801300135002BFC
:1090C000E1D1BDE8F0874146F3E700BFDC5503007E
:1090D00000100020A44A0300A74A0300364E0300F4
:1090E00040F605226A4B2DE9F0411B8893420ED8C9
:1090F000B3F5206F0DD840F20252934218D040F2DF
:109100000172934220D040F2015293420AD0BDE84E
:10911000F081A3F602235F4C032B1ED8DFE803F097
:10912000376396B25C490020BDE8F04123F09FBB55
:1091300000205A4923F09BFB564B1A6C0020BDE8D7
:10914000F041574923F093BB524A0020D2E924232F
:10915000BDE8F041534923F08ABB0020524923F077
:1091600086FB94F868309E0703D500204F4923F012
:109170007EFB94F86B305D0603D500204C4923F04C
:1091800076FB94F96B30002BC1DA4A49CBE700201B
:10919000494923F06CFB94F86430980704D0002010
:1091A000226C3F4923F063FB94F96430002B04DA0E
:1091B0000020226F414923F05AFB00250126404F31
:1091C000DFF80881626E06FA05F3134207D057F8FC
:1091D000252013781BB14146002023F048FB0135C0
:1091E000082DEFD193E73749002023F040FB2C49AD
:1091F0000020226C23F03BFB94F86530590703D51F
:109200000020314923F033FB94F96530002B04DA58
:109210000020226F294923F02AFB0825284E2B4FD6
:10922000636EEB40DA0707D556F8252013781BB19B
:109230003946002023F01BFB0135102DF0D194F8A6
:10924000640000287FF463AF21496DE721490020C5
:1092500023F00DFB0020226C114923F008FB1025A0
:10926000174E1A4F636EEB40DB0707D556F82520E3
:1092700013781BB13946002023F0F9FA01351A2D75
:10928000F0D144E70020144923F0F1FA226C55E7AD
:109290003442002000100020B14A0300EF4A0300CE
:1092A000204B03003B4B0300574B0300704B030064
:1092B000AB4B0300DF4B03001C4C0300424C03008C
:1092C00080540300694C0300814C0300604C030090
:1092D000C84C0300F94C0300134D03002DE9F04F77
:1092E000434C85B0636BD4F83CA05A0744BF0026BA
:1092F000B046D4F84CB05FBFD4F838A0D4F848B02A
:10930000D4F850803B4E54BFDFF81091DFF8109135
:1093100013F0080F384B394A18BF1A46B6EB080746
:109320001FBF64237D0803FB0B55B5FBF7F50CBF8E
:109330003D46ADB24B4632490020CDE9016ACDF839
:109340000080BFB223F093FA2B460020CDE90097AE
:109350002C491FFA8BF223F08AFAB24501D8C24594
:1093600004D24A460020284923F081FAD4E91703A1
:1093700018433AD00020254923F079FA0025012628
:10938000234FDFF8A080E26D06FA05F3134207D001
:1093900057F8252013781BB14146002023F067FAC7
:1093A0000135202DEFD100250126194FDFF87480FB
:1093B000226E06FA05F3134209D007EB8503D3F8B2
:1093C000802013781BB14146002023F050FA01356C
:1093D0001D2DEDD100200F4923F049FA00200D4941
:1093E00005B0BDE8F04F23F042BA0B49F4E700BFE7
:1093F0000010002000100020424D0300494D0300E2
:10940000514D0300834D0300BD4D0300DC4D0300AF
:10941000E8540300374E0300104E0300354D03009F
:109420003A4D03000C4E030010B5FEF77BFD0446D9
:1094300022F0FDFE0022012101FA02F3234018D0A0
:10944000204B214933F81230062B18D040F2072266
:10945000934211D14FF000524FF20F0054888442D2
:109460000AD11088984207D14CF23C3353800880CF
:1094700010BD0132102ADFD1134A138012E04FF0E1
:1094800000534FF20F025888904218D11B88B3F551
:10949000406F28BF4FF4C0630B804CF23C324FF05A
:1094A00000535A80084B1A8840F201739A4201BF58
:1094B000064B074AD2E90001C3E90001D8E74FF49F
:1094C000C063E9E7A856030034420020E8280020E2
:1094D00090100020014B1888000A70473442002089
:1094E00010B5044622F0E1FD4FF000534FF20F0299
:1094F0001C805A80BFF35F8FBFF34F8F0549064B27
:10950000CA6802F4E0621343CB60BFF34F8F00BF21
:10951000FDE700BF00ED00E00400FA0538B50446A1
:109520000D4600F0C7F922F0C0FD2B462246054942
:10953000002023F09CF929462046BDE8384023F05E
:1095400085BB00BF264E03006C4A2DE9F0416C4BF1
:1095500055686C4C5D65516A99656B49D1F800029C
:10956000D865D1F80412586B1966916A10F0040F8F
:109570005966D16A4FF000009966116BD966516B3C
:109580001967D26BD8645A67D3E90E2108BF114618
:109590005E4A91421A655DD301F12000A04259D87C
:1095A0008869C5F308051864CE69062D5E6455D137
:1095B000574DA84252D3574DA8424FD205884DF679
:1095C000426085424AD11868C3F890005868C3F8D1
:1095D000940040F20170A242154604D22E68043273
:1095E000B6F1CD3FF7D00022C3E91E22C3E9202205
:1095F000C3E92222641B434EDFF814C1DFF814E1F3
:109600009C648E422DD8D3E91EC7D3E92065D3E9E7
:1096100022414FF0000E013AD2B2FF2A3DD1BEF1F5
:10962000000F05D0C3E91EC7C3E92065C3E9224185
:10963000B3F85430C3F308030C2B3CD8022B52D997
:10964000DA1E092A4FD8DFE802F0553241444E4E67
:109650004E4E4E4B0021C3E910112C494FF42060AF
:10966000B9E756F8044D6445CBD37445C9D2E50734
:10967000C7D50625284F57F8048BA045C1D0013D1A
:1096800015F0FF05F7D10AB9052201E0013AD2B27F
:1096900002F11E0543F82540B3E7E0464FF0010E06
:1096A000BC4637462E4625460C464146B3E740F6B3
:1096B0000220BDE8F0813B2B15D1184B9B6913F0BC
:1096C000020F40F2025318BF1846F2E740F603209B
:1096D000EFE740F60423B0F5206F08BF1846E8E72F
:1096E00040F60520E5E740F60722013B4B2B98BFEB
:1096F0001046DEE740F60120DBE700BF00ED00E0AA
:10970000001000200010002000E100E00000002018
:1097100034410000E0450300781000200080015A29
:1097200000F00CB800F00AB800F008B800F006B875
:1097300000F004B800F002B800F000B872B61EF0F5
:10974000080F09D01EF0040F0DD0DFF850E0AEE88E
:10975000FF1F6FF002000CE0DFF840E0AEE8FF1FF3
:109760006FF00E0005E0DFF834E0AEE8FF1F6FF0A9
:1097700006006946EFF309828EE80700864608482E
:10978000084C854501D3A54501D384F30888FFF72C
:10979000DBFE84F30888FFF7A3FE00000010002022
:1097A000400000200010002082B2074B4AB1000C9C
:1097B0001A8008BF4FF6CE22044B14BF18801A80BF
:1097C00070474BF6EF62F2E7F6140020F814002021
:1097D0000B4BB3F900201888002AB8BF80F0620054
:1097E00042001A80074AB2F9001013880029BCBF52
:1097F00083F4805383F00B03590011805840704765
:10980000F6140020F814002008B501F089F960B1C1
:109810000A4B0344072B0DD8072B0BD8DFE803F0C6
:1098200004060A080A0A0A0CC22008BDC320FCE785
:10983000C420FAE7C520F8E7C120F6E7FF1FFF0FB5
:10984000024B9A6903F500539A6170470080015AF0
:109850001FB50D240021224668462AF0A9FC0123E9
:109860008DF800300323104A8DF809408DF80A3036
:10987000D2F800320D4C23F0070343F00103694690
:109880002046C2F8003222F04FFD4FF4006102235F
:10989000074A04F50050C2F884118361516004F551
:1098A0008054E36104B010BD008000500080015A74
:1098B00000E100E0014822F026BD00BF0080015A0F
:1098C00008B5044822F089FDBDE8084000210148A0
:1098D00022F00ABD0080015AF0B519B3002820DA41
:1098E0002D23B0F1004F137000D04042012119E048
:1098F000801B8642ECB205F10105F9D914B9BCF11F
:10990000000F05D04FF0010C4D1C30345454E9B217
:10991000013B13F0FF0309D130305054481CC0B252
:10992000F0BD002109234FF0000C024F002557F82D
:10993000046BDEE7D05603002DE9F04F002495B00C
:109940002146029480461646A1464422274603A893
:1099500002AC9B4625462AF02BFC0DF1480A3178D3
:1099600059B9641BE4B2224629460020C0470028AA
:1099700040F0AF803C44E0B2ACE025291AD0B9F108
:10998000000F1BD1204600F8011B04465445C0F0CF
:10999000F580641BE4B2294622460020C0470146F8
:1099A000002840F09680274448222846FFB22AF03B
:1099B000FFFBE2E0B9F1000F00D101363278782ADE
:1099C00006D8612A07D8252A5DD039D8002AC8D000
:1099D0004FF00009DAE7A2F162011629F8D801A3D5
:1099E00053F821F0939A0000259B0000819B000012
:1099F000D1990000D1990000D1990000D1990000BF
:109A0000D1990000D1990000D1990000819B0000FC
:109A1000D1990000D1990000D1990000379B000036
:109A2000D1990000D1990000379B0000D199000026
:109A3000819B0000D1990000D1990000779A000025
:109A4000392A16D82F2AC3D9717801F0DF01582995
:109A500040F0C380322A06F1010940F0AB805BF888
:109A6000041B2046042289B223F010F904464E4616
:109A7000AEE7582AACD15BF8041B02222046C9B2DB
:109A800023F004F955E0214601F8022B62700C46E0
:109A90009EE74FF00009DBF800300193DBF804305B
:109AA0000093009B994502D10BF1080B90E7019BB5
:109AB0002046022213F8091023F0E8F85045044626
:109AC00012D3441BE4B2294622460020C047014677
:109AD00018B1002015B0BDE8F08F48222846274471
