:2000000008100020C1010000311C00006F1D0000311C0000311C0000311C0000311C0000D9
:20002000311C0000311C000020250000311C0000311C000068250000311C0000311C000020
:20004000311C0000311C0000311C0000311C0000311C0000311C0000311C0000311C000038
:20006000311C0000311C0000311C0000311C0000311C0000311C0000311C0000311C000018
:20008000311C0000311C0000311C0000311C0000311C0000311C0000311C0000311C0000F8
:2000A000311C0000311C0000311C0000311C0000311C0000311C0000311C0000311C0000D8
:2000C000311C0000311C0000311C0000311C0000311C0000311C0000311C0000311C0000B8
:2000E000311C0000311C0000311C0000311C0000311C0000311C0000311C0000311C000098
:20010000311C0000311C0000311C0000311C0000311C0000311C0000311C0000311C000077
:20012000311C0000311C0000311C0000311C0000311C000010B5054C237833B9044B13B18E
:20014000044800E000BF0123237010BD18100020000000001C27000008B5034B1BB1034982
:20016000034800E000BF08BD000000001C1000201C270000064B0748DA1C121AC11E22F08E
:200180000302994288BF0022034902F09DB900BF181000201010002028270000064B07484C
:2001A000DA1C121AC11E22F00302994288BF0022002102F096B900BF341000201810002016
:2001C00008B5084B83F30A88074B084AC3E9002200F00EF800F0F2F9FFF7CCFFFFF7DEFF30
:2001E00000F06CF90800002008100020A5EDF5FE044B054A9A60D3F8882042F47002C3F857
:200200008820704700ED00E000000000F0B5421ED11C034685B019D86E460D4C04F1100738
:20022000354620686168083403C5BC422E46F7D10DF10F010F3311F8010912F8014F844231
:2002400004D19A42F7D1012005B0F0BD0020FBE70C2500002DE9F0410368044603F16043DC
:20026000B3F5803F4FF00000A0B029D8826A636816699E4224D8B3F5402F21D8656B06F19E
:200280004003AB4268D8B5F5402F65D82846FFF7BDFF002860D0284601F02BFD80B16B6994
:2002A00073B1022B0FD1AB69C4F1040119444FF0FF32204600F008FE284BC31A5842584193
:2002C00020B0BDE8F08140F2046328460493FFF79DFF08B90020F3E7284601F00AFD0028BF
:2002E000F8D00027D7F834804046FFF78FFF0028F0D0503EB045EDD8284605A901F000FD48
:200300000028E7D0BA6A059B12699A42E2D89C42E0D8B3F5402FDDD806A801F0E9FE059AA2
:200320002146121B06A801F0EDFE06A801F0ECFE059C00F057FE039000F06CFE214600904C
:20034000039B04F1200206A800F0D2FD04900498B0FA80F04009B3E70120B1E7E320BBDEF9
:2003600070B54FF0FF3290B005460C4600F0ACFD1A4B98422ED11C22002101A802F0B1F891
:20038000174B29466846043C009302F043F82146684602F03FF8684602F045F801F049FC8D
:2003A0000646B8B940F2022000F07CF91C22314609A802F096F80B4B294608A8089302F0DF
:2003C00029F808A8214602F025F808A802F02BF801F02FFC002010B070BD00BFE320BBDE8D
:2003E000010005430100064330B5044691B01C22002101A802F075F8114B2146684600938F
:2004000002F008F8684602F00EF801F012FC054698B940F2022000F045F91C22294609A8C9
:2004200002F05FF8074B08A82146089301F0F2FF08A801F0F8FF01F0FCFB002011B030BD3F
:20044000000002430000034310B58CB01C220446002105A802F045F80A4B019404930123E6
:200460000293094B01A904A8039301F0C9FF04A801F0D9FF01F0DDFBB0FA80F040090CB091
:2004800010BD00BF000008430400002038B50C46054680B179B100230B60074B036001F048
:2004A00074FF01301EBF2B6843F440432B60236843F40053236038BD1424004013B501A86D
:2004C00001F084FA9DF80530012B27D1334A936DDB0313D4536B23F4FF0323F4FE4343F417
:2004E000BC1343F4A0635363136B23F4704343F440431363136B43F4E06313639DF804308E
:2005000063B94FF000531B68254B1B68254B1B68254B1B68254B1B68254B1B68254AD2F8B2
:20052000803043F00303C2F8803001F011FC00F0ABF808B900F090F801F088FE044658B9CC
:2005400000F0A2F808B100F097F840F2012000F0D3F84FF4017018E000F096F808B900F0F0
:2005600083F800F0ABF8012802D900F075F8FEE700F0B0F8104B0193019B002B0ADC40F2C1
:2005800005439C42E5D140F2032000F0B5F8002002B010BD019B013BEDE700BF00C0004083
:2005A000004000200080002000C0002000000120004001200080004000350C0013B50124EB
:2005C0004FF040238DF806408DF80740D3F894305B0610D500F0A4F8A0F2022080B207286C
:2005E00009D804FA00F010F0C90F1EBF00238DF806308DF807304FF480435B68013308D107
:200600004FF4027000F04EF800238DF806308DF807309DF8073063B14FF48040FFF71AFE64
:200620008DF806009DF806301BB94FF4027000F039F89DF8063053B100F026F808B100F034
:200640001BF84FF48040034B986001F085FB02B010BD00BF00ED00E04CF23C32014B5A80F0
:20066000704700BF000000204AF6C032014B5A80704700BF000000204FF20F02014B5A807E
:20068000704700BF000000204AF6C030044B5B8823F00F039BB21B1A58425841704700BF12
:2006A00000000020044A08B51080FFF7EDFF10B94FF20F03538008BD0000002008B5FFF716
:2006C000E3FF18B1024B588800F00F0008BD00BF0000002008B5FFF7D7FF48B1054A5388F3
:2006E00003F00F010F2914BF013323F00F03538008BD00BF0000002008B5FFF7D3FFBFF3E5
:200700004F8F0549054BCA6802F4E0621343CB60BFF34F8F00BFFDE700ED00E00400FA056F
:200720004FF20F01084B5A888A4201D1188870473AB91B8840F20220012B18BF4FF400709E
:2007400070474FF4007070470000002030B500220C24064B04FB02F1CD58854201D15818B0
:2007600030BD01320C2AF5D10020F9E7B82500007FB50023CDE90033082315460DEB0302BD
:20078000044601F0BAFB41F203039842064626D194F8433063B10822E06C0DEB020101F09E
:2007A000B1FC08230DEB03021146A06C01F08FFC039A029B6A6094F843202B605AB9094AA1
:2007C000934208D0084A934205D00822E06C0DEB020101F097FC6B682365002363653046BF
:2007E00004B070BDF70A0AF7FC0404FC2DE9F04100254FF0FF3704468846164603F02003AB
:2008000080F842301822FF21C0E91855A0F8405080F84350A0F8445080F84650C0F8887061
:20082000683001F05EFE88222946C4E91286C4F88070C4F8847004F1900001F052FE074B01
:20084000C4F82071C4E9463584F8245116B1304601F04EFC0020BDE8F08100BF00010101C2
:200860002DE9F04FA5B09846CDE91123002304460E462E9D1393139A424501D30020D1E0FB
:2008800094F84630132BF7D8DFE813F06700B400AE00520039002D00C1013900B901390010
:2008A00073013900B901A8021803140012014F024F0216034FF00009636D0F2B00F29880CE
:2008C0000127102314AA2046CDF80490009711A901F013FB41F203030890089A9A4200F0B1
:2008E000D980089B45E04FF00109D4E91432934200F2E88084F8469041F2030339E04FF079
:200900000109D4E91417B94272D9C91BDDE91272BF1A94F840200329174440F28181032FBF
:2009200000F28181204611A901F0C6FA002320E00127636D072BDFD8082314AA2046CDE9E9
:20094000007711A901F0D9FA41F203030B900B9A9A4200F023810B9B0BE014AA204611A94A
:20096000FFF706FF41F203020590059B934208D0059B049341F20303049A9A423FF47BAF1B
:200980004FE0159A1499226500226265A24A914240F00F81022284F84620EAE7012314AA24
:2009A000009320460823019711A901F0A6FA41F203030690069A9A4201D0069BD9E7149B04
:2009C00003F07F43B3F1407F05D0132384F8463041F20903CDE7159BD90706D594F84230A6
:2009E00043F0010384F842300027636D072BD5D9012309E1204614AA11A9FFF7B9FE41F22F
:200A000003030790079F9F420FD0079F41F203030497049A9A423FF42EAF049B0BB1002351
:200A2000F370049825B0BDE8F08F1498FFF78EFE28B9132341F2080784F84630E6E74379BC
:200A400094F824219A4205D9132341F20E0784F84630DBE7026871498A4205D00289D207B0
:200A600048BF013384F8243194F84230D9070DD5028994F84330920706D53BB1132341F257
:200A8000010784F84630C1E7002BF7D0037984F84630BBE7D4F848A000F0D4FA802302217A
:200AA000CDE9000315AA3B46504601F0EDFA03E7226D0123A265002284F84330E26584F857
:200AC0004630D8E614AA2046CDE9009911A901F014FA41F203030990099A9A4201D0099BF0
:200AE00047E714AF06F108030DF1680C3A4603CA624518605960174603F10803F6D11068D1
:200B00001860337843F001033370EEE6337843F004033370179BB36273785F0726D5EB235B
:200B20008DF8503017238DF85130A6238DF852305E2300208DF85330236D6066C4F8843031
:200B400094F8453043F0020384F84530EF686FB104222B6814A9B8470822606E2B68EF689D
:200B600016A91044B847636E103363660B2384F84630636D072B3FF6BFAE012316AACDE928
:200B800000332046082311A901F0B7F941F203030A900A9A9A42B9D00A9BEAE63378159A8B
:200BA00043F002033370149B7360236D083B73622AB1132384F8463041F20103D9E6042310
:200BC00084F8463094F84530626643F0010384F84530AEE6042314AA2046CDE9007711A96C
:200BE00001F08BF941F203030C900C9A9A4201D00C9BBEE6236D042B02D9149B2366012713
:200C0000636D032BE6D9092384F8463074E600236366072353E700BFEB17A603F90707F9E5
:200C20008F42FFF47FAE402928BF40218F4228BF0F46032F88BF27F003073B4614AA2046C6
:200C4000CDE9009911A901F058F941F203030D900D9A9A4201D00D9B8BE694F846A0BAF1E9
:200C6000070F04D1D5F808B0BBF1000F1BD1042FC7F1040B88BF4FF0000B14AB5A46FF2153
:200C8000D81901F02EFCBAF1090FBB4414D12B465A46204614A901F0A5F90D900D9B002B6E
:200CA0003FF42FAED7E73A462B68606E14A9D847626E3A44626624E6BAF1040F21D17378EE
:200CC00098077FF51EAEEB68002B3FF41AAE626E042A0BD80BEB0203062B07D915AB9B1A5A
:200CE0001A68C4F884204FF0FF321A605A462B68606EEF6814A9B847626E0BEB0207676678
:200D0000FFE5BAF10B0F7FF4FCAD737859077FF5F8ADD5F80CA0BAF1000F3FF4F2AD5A4605
:200D20002B68606E14A9D047E6E700218A6A496B1269503A91423FF63FAF112B0FD194F845
:200D40001831002B7FF454AE41F206030E930E9A9A4202D1132384F846300E9B09E694F82A
:200D60004430002B7FF444AECDE9003314AA4023204611A901F0C1F841F203030E900E9A1C
:200D80009A42EAD1E06C01F0BFF994F81831A3B104F1B403E06C00931CAA04F1940314A904
:200DA00000F0A6F80E900E9B9BB10023F370132384F8463041F20603DBE5E76C00F012F91A
:200DC000039000F027F9039B00901CAA384614A9E6E70123F37084F8443009E6002314AA2D
:200DE000CDE900332046042311A901F086F841F203030F900F9A9A4202D00F9B049310E6EE
:200E0000D4F888202F4B9A4205D0132384F8463041F20503F2E70123F37094F84530DA078E
:200E200007D5EF682FB104222B68104604F18401B84794F845309B0707D5EF682FB104223B
:200E40002B68104604F18401B847236E6BB36F685FB34FF0FF3304F18001042210A8109330
:200E6000039101F021FB28B1042248F204002B680399B84704F168090422494610A801F0A2
:200E800013FB90B100239B6A1422D3F8108004F16C0108F10800D5E90037B847D5E90037FE
:200EA0000422494608EB0200B8470123B3700E2384F846300023A1E70023F37041F20700B4
:200EC000B0E500BFE320BBDE30B501240025074B01445C609D601A61DC60884201D1586A8E
:200EE00030BD10F8012B1A62F7E700BF008008402DE9F04399B00E4615461C460746DDF82B
:200F00008090002861D000295FD0002A5DD0002B58D02F4B2F4AB9F1000F14BF9846904633
:200F20001C22002111A801F0DCFA2B4B414610A8109301F06FFA202110A801F06BFA0122AE
:200F4000264B019402920393CDF810900592069354B1B9F1000F07D001A910A801F046FAA4
:200F600004A910A801F042FA079701271B4C07A910A80897099401F039FA0AA910A80A96DF
:200F80000B970C940D950E970F9401F02FFA0DA910A801F02BFA10A801F045FA104B0093B1
:200FA0004FF098435A6CD202FCD55B6D40F2046003F470230093009B002B08BF002019B0BB
:200FC000BDE8F083DFF80C80AAE740F20160F6E71F2400801F24FC840000010620000020C8
:200FE0007856341200B591B00023402269464FF4807000F0C5FCB0F5A02F07D0B0F5302F80
:20100000034818BF002011B05DF804FB0048FAE74CE30B0000B591B00023402269464FF4A9
:20102000807000F0ADFCB0F5A02F07D0B0F5302F034818BF002011B05DF804FB0048FAE758
:201040006CE30B000048704786E20B002DE9F34799460A9B0C46196805463F29164642D8F4
:201060005A68002A41D0224A002E14BFB046904601F03F07091928BF5A68196024BF0132A9
:201080005A60AFB1C7F1400AA24521D82946524609EB070001F018FA0123414600934A4681
:2010A0003346002000F086F8B046403C55443C443F2C0CD9A3092A4600934146334600207F
:2010C00000F078F824F03F031D4404F03F0400272CB12246294609EB070001F0F5F90020ED
:2010E00002B0BDE8F0879046C2E7DFF80480BFE74826000030B40546084611461A46DDE93A
:20110000023425B931B1029430BCFFF79FBF024830BC70470846FBE780AFFFFF2DE9F04172
:201120001746146886B01E46E3008DF80F30630952688DF80E30630B8DF80D30630D8DF887
:201140000C30D30003EB54738DF80B3004F03F045309372C8DF80A304FEA52334FEA5252BB
:2011600005468DF80820884694BFC4F13802C4F17802CDE900178DF809300D4903460020EE
:20118000FFF7B8FF082143462A4600970DEB0100FFF75CFF284605F1200350F8042B9842C7
:2011A00046F8042BF9D1002006B0BDE8F08100BF68260000F0B593B00E461746044620229A
:2011C00000210AA81D4601F08CF901204FF0005201970290039204960590069207950890F7
:2011E0000992002C2FD1189C184BA40121460AA80A9301F00FF903990AA80C430394069BE8
:2012000004A943F020030693099B43F02003099301F0ECF801A90AA801F0E8F807A90AA838
:2012200001F0EEF80AA801F0FEF84FF098435A6CD202FCD55B6D13F4702F0CBF00206FF001
:201240006F0013B0F0BD6FF07100FAE7000401032DE9F041A2B0502204460D460EA8002177
:2012600001F03FF93422002101A801F03AF901A800F0D4F9049B012B11D8002320466A1ED6
:201280009D424FEA82024FF0FF0108BF1A4640F8043B01F026F9002022B0BDE8F081AB42D0
:2012A00060D300F0D0FF059B0C220EA90646DF6801F030F80028EFD1DFF8B4800E9B4345E7
:2012C00015D1109A0EA9304601F024F84FF0FF3210990EA8FFF7F8FD244B98422ED0FF2123
:2012E0002046AA0001F0FDF840F20650D4E737440C2238460EA901F00DF80028CCD10E9B73
:20130000434507D0FF212046AA0001F0EAF840F20550C1E70EA93846109A00F0FBFF059BD3
:201320003046D96801F033F80028B5D13046109A0EA901F005F80028C3D0ADE7109E11A9B0
:20134000103EB608AE4228BF2E46B7003A46204601F0BAF8AA1B9200B54238BF0022FF216F
:20136000E01996E740F2045096E700BFE320BBDE39528FE144222DE9F043A3B00C46814683
:2013800000210DEB020001F0ACF8012350262E4A0021CDE90E2301A83422109601F0A1F854
:2013A00001A800F03BF9049BA34249D3012B0AD8D9F8003040F204500133012B98BF002054
:2013C00023B0BDE8F08300F03EFF102C28BF1024059B4FEA8408DF68424649460744054645
:2013E00011A801F071F8C4F110040EAB08F10C001844FF21A20001F074F84C214FF0FF32FB
:201400000EA8FFF761FDC043059B2190D968384600F0BDFF0028D3D1324638460EA900F09A
:201420008FFF0028CCD1059B2846D96800F0AFFF0028C5D1324628460EA900F081FFBFE7FB
:2014400040F20450BCE700BF39528FE131B10A4B5A68824205D80023C1E9003340F201409C
:201460007047013053F8302003EBC00043680A6000204B60704700BF0C27000070B40C463C
:2014800011460C4A556885420DD9013002EBC0067668E518B5420AD852F830001A4620445F
:2014A00070BC00F037BF40F2014070BC704740F20240FAE70C27000030B5CA681B4B044675
:2014C0009A420D46A3B019D100F03FFCD4F82432174A013352F83330D4F82C2213449842C6
:2014E00008D38033984209D241F20D03C4F8303223B030BD00F540409842F5D88023D4F8FD
:201500002C1202AAD4F82402FFF7B8FF80232146009502AA04F12C00FFF7A2F9D4F82C321B
:20152000C4F830028033C4F82C32E1E7A91C00000C27000070B50D46002186B00DF1070359
:2015400002931D4B04461646116028461C22CDE903338DF80710059300F0C3FFD4F83032CB
:201560002BBBD4E98A21914207D2204602A9FFF7A3FF9DF80730002BF0D02278910744BFDC
:2015800061683160D20709D504F1080204F1240152F8040B8A4245F8040BF9D14BB9237847
:2015A00040F20640002B18BF002006B070BD0023E3E70020F9E700BF5122000070B40C4619
:2015C00011460C4A556885420DD9013002EBC0067668E518B5420AD852F830001A4620441E
:2015E00070BC00F0ADBE40F2014070BC704740F20240FAE70C270000074B5A68824207D9CE
:20160000013003EBC002516853F8300000F0BFBE40F20140704700BF0C27000070B50546BC
:2016200088B0C0B14FF4403200236C46C0E900230A4B05F114061A785B680272C3606846AC
:2016400000F06EF80FCC0FC694E80F0086E80F0005F114032B6108B070BD00BF0C2700000C
:2016600000B5ADF5137D4FF40D7205A900F021FE78B904238DF81530074BCDE90100039046
:2016800001A905A8049300F028FE0DF5137D5DF804FB0020F9E700BFA91C0000002300B504
:2016A0009B6AADF5137D9B688B4204D300200DF5137D5DF804FB4FF40D7205A900F0F9FDF0
:2016C0000028F3D102238DF81530054BCDE90100039001A905A8049300F0FFFDE7E700BF2E
:2016E000A91C000000B5ADF5137D4FF40D7205A900F0DFFD78B901238DF81530074B019000
:20170000CDE90230049001A905A800F0E6FD0DF5137D5DF804FB0020F9E700BF891C0000D9
:2017200070B504460646044D0FCD0FC495E80F0084E80F00304670BDEC260000024BD869A4
:2017400000F00100704700BF00000340F0B5114A114C124E00F00105E3695F0713D40DB9CD
:20176000334213D103EA00078F4207D10B4A1A40002A14BF6FF001000020F0BD013AEBD1A3
:201780006FF00200F9E74FF0FF30F6E76FF00100F3E700BF809698000000034002000100D0
:2017A00070B5134C6061E3695B071ED40E4656F8043B8D18A361AE420BD104230021212065
:2017C0002361FFF7C3FF58B9BDE870402120FFF7BDBF08210846FFF7B9FF10B10423236123
:2017E00070BD56F8043BA361E5E74FF0FF30F7E70000034038B541F6713301220C4C00216C
:20180000E569E3630B4B05F48035DA600223606121202361FFF79AFF10B92120FFF796FF27
:201820000122054BDA600DB10023E36338BD00BF0000034000100340002003402DE9F843D6
:20184000154641F67132164B8946DF69DA630122064603F58053DFF8508007F48037DA60D1
:2018600055B9284601220F4BDA601FB10022A3F50053DA63BDE8F88306F5005404EA0804B2
:20188000A41BAC4228BF2C46494622463046FFF787FF0028E6D12644A1442D1BE0E700BF5D
:2018A000000003400020034000E0FFFF2DE9F04F06464FF4502501202A4CDFF8B4C041F632
:2018C0007137CCF8040044F8265030250024DFF8A4E0DFF8A49005FB06E5EC652C662C67A6
:2018E000214CDFF898A0D4F81C80E763E76800FA06F60743E7604BB9E26818F4803F22F0B9
:201900000102E26000D0E363184628E001F5005000EA0900401A984228BF18466161D4F8C6
:201920001CB087081BF0040F17D1013F3F0147F060576F66AA66C5F86CA0CCF82460DEF80C
:2019400034703E42FBD0094F01447E630427CCF82860024427611B1ACDE74FF0FF30BDE8D9
:20196000F08F00BF004004400000034000200440001004400000044000E0FFFF180003402D
:20198000F0B507460F4D10488DB0002B08BF05460E46144600211C2205A800F0A2FD0123BA
:2019A00004A801A93D4344F00054019604950293039400F025FD00F036FD00F00EFD0DB080
:2019C000F0BD00BF01000AFF010008FF054B5B69C3F38512827003F03F021B0B42700370B7
:2019E000704700BF00C007402DE9F04104681E4624F04003802B05468846174692B002D0C7
:201A0000B4F5807F43D11C2200210BA800F069FD224A234B0121B8F1010F18BF13460A9320
:201A20002B1D0193E4081F4B44F0005402910AA803940497059106930796089101A90993CA
:201A400000F0D4FC04A90AA800F0D0FC07A90AA800F0D6FC29680AA8C90800F0DBFC10217B
:201A60000AA800F0D7FC00F0FCFC98B90AA800F0DAFC4FF098435A6CD202FCD55C6D00F002
:201A8000F2FC04F47024204612B0BDE8F0816FF07100F9E74FF0FF30F6E700BF00010104CE
:201AA00000010004100000202DE9F04F9BB00746894698461646DDF894B072B115683B689F
:201AC00023F04002802A03D0B3F5807F40F0A6800BEB0903002400930DE01546EFE795B11A
:201AE000249A1BF80430525D01355340269A05F00F05135501344C45F1D3002E00F091807F
:201B00000020356067E0A9EB040ABAF10F0F57D91C22294613A800F0E4FC434B3A68129321
:201B20003B1D03930123D20842F00052049305923E4A2699CDF818802AF00F0A07930892FC
:201B4000CDF824800A930B920BEB04020C9221444AF000520D9312A80E920F9103A910936E
:201B6000119200F043FC06A912A800F03FFC0CA912A800F03BFC0FA912A800F041FC09A918
:201B800012A800F03DFC396812A8C90800F042FC514612A800F03EFC00F063FCC8B912A803
:201BA00000F041FC4FF098435A6CD202FCD55B6D544403F47023019300F055FC019B5BBB02
:201BC000269B0BEB040A1C44009B9A4506D14C4691E74FF0FF301BB0BDE8F08F8DB942465A
:201BE00001213846249BFFF7FFFE0028F3D108F1100212F8013D0133DBB213700BB9904577
:201C0000F7D1249A1AF8013B525D0135534004F8013B05F00F05D7E71846DCE76FF01F00DA
:201C2000D9E73046D7E700BF0303000410000020FEE74FF098435A6CD202FCD5586D00F494
:201C400070207047C0F30C032DE9F04105460F4616460BB900F002F905F5005424F4FF54D0
:201C600024F01F0405EB0608A04507D8324639462846BDE8F041022300F0F7B8204600F016
:201C8000EDF804F50054EFE770B40025AD6A03462E69864206D86C6913449C4202D370BC4B
:201CA000FFF7D0BF70BC70471FB510F5004F00F50043144603931AD2039BB3F53E2F16D2E5
:201CC000039BC3F53E23934211D348B9836A5A69B2F5004F04D91869019100F0BFF80199BC
:201CE0002246039804B0BDE81040FFF7ABBF04B010BD036913F0FE0F0CBF01200020704718
:201D000038B504460D46FEF781FA48B16369012B09D12046FFF7EDFF08B1A3692B6038BD71
:201D200001202C60FBE70020F9E74FF0FF3313B5044601A80193FEF787FB20B1019BA3428B
:201D40002CBF0020012002B010BD4FF40040704700F0DEBA00F03FBB4FF48043184601685F
:201D600081F3088881F3098840688746FEE74FF40170FEF7C1BCB1F50D7F10B504460FD3B7
:201D80004FF40D72002100F0ACFB04F5DE7204F5AA7104F12C000023BDE81040FEF726BD5B
:201DA00040F2052010BD13B50446009101462C30FEF756FDC4F8300218B141F207039842A3
:201DC00009D1A3784BB140F2032040F20223E278002A08BF184602B010BD40F20120FAE70A
:201DE0002DE9F04387B00DF1080904460E4617460021102248461D46DDF8388000F071FB2C
:201E000000211C22C8F80010284600F06AFB32463B462146CDF8009004F12C00FEF720FDE8
:201E200023789A0744BF6268C8F80020DB0709D504F1080304F1240253F8041B934245F862
:201E4000041BF9D1237840F20640002B18BF002007B0BDE8F0834FF40D70704708B5FFF76B
:201E6000C9FCB0FA80F0400908BD072B10B5044618460FD862B142EA04039B070AD11346D3
:201E80000A462146FFF712FDB0FA80F0400910BD0120FCE70020FAE7134610B542B10343FA
:201EA0009B0707D1FFF7CAFCB0FA80F0400910BD0120FCE70020FAE770B5D1E90152AA4299
:201EC00005D290F840302B449B1A402B10D9002012E00A6890F84040D65C90F841200133E0
:201EE000224402F03F02013486548B6080F840408B689D42EDD8012070BD2DE9F8431D46BE
:201F00001746D1E901329B1A90F84020044613449D420E469DF820909DF8248056D9FFF763
:201F2000CBFF00285CD1132341F2020084F84630BDE8F88394F84120A25CFA5494F84120DF
:201F40000133013202F03F0284F8412094F84020013A84F8402094F840200AB19D42E9D1C7
:201F6000D6E90121914201D29D4231D89D42DAD129463846D4F88820FEF7A6FFC4F8880029
:201F8000B9F1000F04D02A463946E06C00F0BAF8B8F1000F08D094F843308BB12B463A461B
:201FA0003946A06C00F093F894F8433043B1E36DA26D2B449342E36524BF002384F8433048
:201FC000636D41F203002B446365B1E70023C2E73268525CFA54B26801330132B260BFE791
:201FE0000020A5E72DE9F743044658680E4617469846002842D011F0030342D19B6A206E65
:202000001B6902EB000C1D1D65451CD81C33984219D28542294638BF01469C4594BFC1EB03
:202020000C02C1EB0302081AC5F1680506EB0009681820444946019200F046FAFF214846BE
:20204000019A00F04EFA48F20403226E9A420BD848F20701B818884206D99B1AF258C4F8A7
:2020600080204FF0FF32F2503A46D8E90035206E3146A8470020226E3A44226603B0BDE896
:20208000F08341F20200F9E7F7B50446203016461D460F46019000F0E8F9DDE90812019883
:2020A00000F0E7F9002384F8587063643368C4F859307368C4F85D30B368C4F861302B0C7F
:2020C0006DBA84F86530A4F8665003B0F0BD1FB50C46194600F14803CDE90142009300F1D8
:2020E000440200F158032030FFF7DEFC04B010BD10B5044600F00BF82046BDE8104000212F
:2021000000F009B800F00CB8014600F016B86822002100F0E6B90023C0E900331846704707
:2021200007B500F128030190009300F108030020FEF7E0FF03B05DF804FB02460B4600F122
:2021400028010830FEF7EABF30B59FB034220021054601A800F0C5F901A8FFF75FFA049C9B
:20216000012C1ED921460EA8FFF772F818B140F2055398420ED100230EAA52F8041B481C0A
:202180000AD11EAA02EB8303214643F8405C0EA8FFF7F0F81FB030BDA94205D001339C42C9
:2021A000EBD140F20250F5E740F20350F2E710B5ADF50E7D4FF40D72002001A900F079F8C6
:2021C00040F20124002101A800F045F8A042F9D040F20323984220D19DF8043059070CD4DA
:2021E0009DF804309A071DD4DB0716D504998A98FFF778FA88B1002011E00B98FFF795FD1B
:202200000028EDD08A98FFF72BFA0028E8D04FF40040FEF7E9F80028E2D140F205400DF50F
:202220000E7D10BD0022926A029992689142DBD98A98FFF733FA0028EFD00A994FF40040BA
:20224000FEF78EF8E9E74FF4B8207047FFF7AFBF01221A7070471FB50023CDE90033CDE903
:202260000213D0F83032044693B9D0E98A329A420ED26946FFF720F9D4F8300298B141F220
:20228000070240F20123904208BF184604B010BDA3785BB140F2022040F20323E278002A10
:2022A00018BF1846F2E740F20120EFE740F20220ECE737B50C46054611462046FFF75BFD2C
:2022C00048B969462846FFF7C1F820B9019BC4F82452C4F8283203B030BD38B500F5DE72A2
:2022E00004460D46202300F5AA712C30FEF77EFAD4F830321BB9D4E98A329A4203D3A078E0
:2023000000B1E07838BD29462046FFF7D5F8EFE700207047B2F5402F10B5134604460846AE
:202320000BD8B4F5402F08D82344B3F5402F04D8214600F0C9F8002010BD40F20240FBE70D
:20234000B2F5402F10B506D8B0F5402F03D88318B3F5402F0ED940F2024012E0C458013485
:2023600010D104339A42F9D88B0705D10223FFF77CFD03E00023F5E7FFF78EFD0028EAD057
:20238000002010BD40F20340FBE70220704738B541EA0003C3F30C030446CBB9B1F5402F5D
:2023A0000FD8B0F5402F0CD80D18B5F5402F08D8204604F50054FFF751FDAC4204D000283F
:2023C000F6D140F2024038BD0028FAD00020FAE740F20440F7E7002070474FF098435A6CCF
:2023E000D202FCD5586D00F470207047436813B9416070475B685A68012AFBD1596070477D
:20240000836813B9816070475B685A68012AFBD159607047C369032B9FBF00EB8302013325
:20242000D160C3617047C369042B15D84FF09842116CC902FCD504339B0013650168103B18
:20244000116041680C30116050F8041C034411604FF09842984200D1704750F8041B116042
:20246000F8E700207047002070472422002100F038B870B515460E4624220021044600F013
:2024800030F825F04003802B02D0B5F5807F08D12046314640F8045BEA0800F015F800203A
:2024A00070BD6FF01F00FBE70139024410B5904201D1002005E0037811F8014FA34201D017
:2024C000181B10BD0130F2E70A44431E914200D1704710B511F8014B914203F8014FF9D1E6
:2024E00010BD02440346934200D1704703F8011BF9E70000F8B500BFF8BC08BC9E467047AD
:20250000F8B500BFF8BC08BC9E467047B814B6F1E0CFF3ADB7DD25C9FA79B71300000000BB
:2025200007B0CD5E0200000000000302342700000040000000000C00F0040100511D0000A8
:20254000551D000055020000771D0000A71D0000A8260000E11D0000571E00000000000019
:202560008D0400004B1D000013B779FAC925DDB7ADF3CFE0F1B614B80102000000000000DE
:2025800030270000400000000000030200000000000000000000000000000000000000009F
:2025A000000000000000000000000000000000000000000000000000EB17A603020100006D
:2025C00003000000FA0606FA0F04000003000000F40A0AF40505000001000000EB17A65ED5
:2025E0000A06000001000000F50909F50307000001000000F60808F60608000000000000B9
:20260000FE0101FE0808000000000000FD0303FD0C08000000000000F90707F9100900007F
:2026200002000000F30B0BF3110A000003000000F70A0AF7120B000003000000FC0404FC5C
:202640000D0C0000030000006A09E667BB67AE853C6EF372A54FF53A510E527F9B05688C53
:202660001F83D9AB5BE0CD1980000000000000000000000000000000000000000000000093
:2026800000000000000000000000000000000000000000000000000000000000000000003A
:2026A0000000000000000000000100001D1600004D1400007D140000BD150000F915000014
:2026C000751300005112000049210000B322000057220000351500003D1700001523000081
:2026E000412300008F2300008B2300001002030028000000280000000020000000000C0085
:20270000000000000400000000000040010000000100000000C0050000C00500282700009A
:1027200010100020020000005901000035010000D7
:2040000000100020615E0000F1970000F597000017BE0200F99700000198000017BE0200C6
:2040200017BE020017BE020017BE020017BE0200059800008448030017BE020017BE02000A
:2040400017BE020017BE020017BE02004563000017BE020017BE020017BE020017BE0200D7
:2040600017BE020017BE02003DAB0000555C000005BB020017BE020017BE020017BE0200B2
:2040800017BE020017BE020017BE020017BE020017BE0200E56A000017BE020017BE0200F0
:2040A00017BE02005D6C00003D6C000017BE020017BE0200C919030017BE0200919A010021
:2040C000CF190300CB19030051920100DB190300D3190300559A0100D71903008980010057
:2040E000D19A010017BE020017BE02001199000017BE020017BE020017BE020017BE0200A0
:2041000017BE020017BE020017BE020017BE020017BE020017BE020017BE020017BE0200E7
:2041200017BE020017BE020017BE020017BE020017BE0200000000002DE9F34700264FF097
:20414000010A34464FF6FF7837462B4BDFF8BC902A4DC3F804A0C9F80CA0D9F8142002F4CA
:20416000A072B2F5807FF8D14946684628F05FF8009B022E2B600AD92B68BB42C8BF2F682B
:204180002B684345B8BFD5F800802B681C440136F6B2092EDFD107EB0803E41A48BF03344E
:2041A000A4102C60286825F04FFF0FA3D3E9002325F0B4FF0EA3D3E9002326F0D9F80246B4
:2041C0000B460F49C1E9002301220E4B5A60D1E9000100220C4B25F0A1FF26F061FA80B2A7
:2041E00002B0BDE8F08700BF33333333333313400000000000FEAF400050005A6C1B00206F
:20420000401700200060005A00408F400040005A2DE9F04F2DED088B8DB09DED1E7B09EE6B
:20422000903ADDE920430A93229B09EE100A8A460792069351EC170B53EC172BB0EE478ACF
:20424000F0EE678A26F0D2F980B14FF0FF3251EC180BCF4B26F0F2F940B94FF0FF326FF4C6
:20426000801351EC180B26F0CBF998B1069B514622930A9B19EE100ACDE9204319EE903A8B
:20428000079A8DED1E8B0DB0BDEC088BBDE8F04F00F0A2B90022002351EC180B26F0B0F9CE
:2042A000002800F0448118EE903A18EE108A03F10049069BC9F30A5013F48063A0F2FF3012
:2042C00008BF06240B9325F0BFFEA1A3D3E9002325F024FFA0A3D3E9002325F069FDC9F3C9
:2042E00013050F4645F07F5106460022A94B404641F4401125F05AFD99A3D3E9002325F042
:204300000DFF02460B463046394625F051FD26F09FF9834625F098FE93A3D3E9002306461D
:204320000F4625F0FBFE00229B4B25F041FD26F08FF98FA3D3E9002305463946304625F0BB
:20434000EDFE064628460F4625F07EFE8AA3D3E9002325F0E3FE02460B463046394625F02D
:2043600025FD02460B4606460F4625F0D7FE324641EC1A0B3B463046394625F019FD00226A
:2043800041EC1B0B854B51EC1A0B25F0F1FF0022834B25F00DFD02460B4651EC1A0B25F074
:2043A000E7FF00227F4B25F003FD02460B4651EC1A0B25F0DDFF324641EC1A0B3B460020BF
:2043C0004FF0804125F0F2FC02460B4651EC1A0B25F0EEFC02460B4651EC1B0B25F0C8FF08
:2043E00005F2FF350022704B25F0E2FC00222B0525F094FE42464B4606460F4626F01EF9E2
:20440000002840F09780CDE908670BF16303C72B069B34BF04250525190521D558A3D3E902
:2044200000234046494626F0FFF8002800F0BE8055A3D3E900234046494626F0E1F80028DE
:2044400000F0B48000255C45CCBFA4EB0B000024AB46069BC8BF00F1FF3443F48063069339
:204460000A9B9D4238BF5E1B069B28BF002613F0020702D0002D18BF0026BBF1000F07D000
:20448000DDE908234046494625F072FF804689460022002351EC180B26F0B2F810B109F1DB
:2044A00000439946069B514623F40063CDE9036319EE100A19EE903ACDE90089079A0294A4
:2044C00000F08AF875B3069B024613F0200F00F1010619EE903A14BF45206520514619EE03
:2044E000104AA0470523002205930A238BEAEB70CDE90232A0EBEB704FEADB73013D019373
:20450000009019EE903A3246514619EE100A04952CF097F837B1079BC51A079B58190A9BA5
:20452000AB424CD80DB0BDEC088BBDE8F08F59EC188BBEE6002230463946194B25F018FF1A
:204540000BF1FF3BCDE908015FE700BFAFF30080FB799F501344D33FB3C8608B288AC63F56
:2045600061436F63A787D23F71A379094F930A401655B5BBB16B0240EF39FAFE422EE63FD6
:204580002D431CEBE2361A3F0000000080842E41FFFFEF7F0000F83F0000E03F00002C4092
:2045A00000002440000018400000F03F002C3FF457AF0B9B002B3FF453AF013C50E70246E9
:2045C00019EE903A5146202019EE104AA0470135A3E700BF000000002DE9F04F2DED088B6A
:2045E0008FB0DDE920AB08EE100A0F4608EE902A09EE103ADDE922535246049350465B46F4
:204600005946249E25F0F2FFA0B9049B2396229303232193B84B209318EE902A19EE103A2C
:20462000394618EE100A0FB0BDEC088BBDE8F04F2BF03FBF4FF0FF326FF480135046594648
:2046400025F0DEFF30B1049B2396229304232193AA4BE0E74FF0FF3250465946A84B25F036
:20466000EDFF70B1A74A06F00403002B08BF0322A54B1CBF1346042204992396CDE9212190
:20468000C9E7504698A3D3E90023594625F0D6FF38B997A3D3E900235046594625F0B0FF2E
:2046A00098B1049B18EE902ACDE92253394619EE103A18EE100ACDE920AB24960FB0BDEC94
:2046C000088BBDE8F04FFFF7A3BD002200235046594625F095FF002800F081805B46524698
:2046E0000020002125F062FB012382468B46059316F4806F08BF06253021A94606ABA5F140
:204700002002B9F1090FA5EB090406D909F1FF394A4503F8011BF4D120245946504625F00E
:2047200097FF7A4B054603EBC90393ED007BB0EE47AAF0EE67AA25F087FC02460B465046D9
:20474000594625F033FB53EC1A2B25F0E7FC02460B4643EC1B2B25F0A3FF804625F064FCFB
:2047600002460B4651EC1B0B25F020FB02460B4643EC1B2B0022664B25F060FF88B308F184
:204780000108404625F050FC02460B4651EC1A0B25F040FF10B14FF000080135B9F1000FE3
:2047A00051D1284625F050FC02460B465046594625F0FCFA0022564B8046894625F020FFA3
:2047C00030B1002240464946514B25F037FF10B1E80700D5013506AB0A2223445AE005900C
:2047E00086E7002251EC1B0B494B25F009FF0028D4D1B8F1000F02D018F0010FCED008F110
:204800000108CBE7B8FBF1F001FB1082B8F1090F02F1300209F1FF3904F1010403F8012B82
:2048200028D83021A14406AA202C11D04C4504F1010321D104F138020DEB02042E2204F870
:20484000202C1C46C7E70A2106AB2344202CD9D106F00303012B06AB39D1049A002A36D012
:20486000059A12B916F00C0F02D0049A013A0492302214E08046E9E7A1541C46D4E795FBEE
:20488000F2F102FB1155303503F8015B01340D460029DDD0202CF2D1DAE71A5501340499A7
:2048A000A14214D9202CF8D1049A0093CDE9014219EE103A18EE902A394618EE100A0396A0
:2048C0002BF0F7FD0FB0BDEC088BBDE8F08F202CEAD0059AF2B12D2104F138026A4402F83D
:2048E000201C0134E0E700BF0000000065CDCD410000000065CDCDC19167030095670300C7
:20490000FFFFEF7F8C67030088670300A06703000000E03F710704D504F138022B216A44A0
:20492000DDE73207C0D504F1380220216A44D6E770B58EB02C22002103A82FF063FC642388
:204940004FF00232012108938DF81010CDE905230B238DF83430504B1B88D80700F195806A
:2049600008464E4C18F054F84D4B0A224D494E481A704FF42873ADF8123015F023F920601B
:2049800020B940F22721494804F030FE052120682CF0C5FB20B140F23221444804F026FE8D
:2049A00020680C2501F062F9414B206819682CF02EFC18F001FF6843099018F0FDFE68431D
:2049C0000DEB0501079020680FF0A6FC20B140F24721364804F00AFE0022364920682CF0EF
:2049E0009BFC20B140F24921304804F0FFFD324E40F20353314D96F900002B8005237F28BC
:204A0000AB7001D118F0FEF83378EB7018F0D4FE00EB80008000A88018F0CEFE0023C00001
:204A20004FF0FF31E8804FF0FF30AB6018A3D3E9002318F0BFF9224920682DF05FF802A9BA
:204A400020682CF048FC20B14FF41F71174804F0CDFD042220680DEB02012CF0C5FB0428FC
:204A600004D040F27F21114804F0C0FD01A901202DF032FA04F000FF012019F007F927F03E
:204A8000DEFC19F02DF918F02FF90EB070BD00BF0A0020FF420300008E4600207041002000
:204AA000D74E00203DCA01004C12002094890300F8100020DE4E0020741500205C41002031
:204AC0001DCB010010B5054C237833B9044B13B1044800E000BF0123237010BDB0190020E5
:204AE00000000000B48D030008B5034B1BB10349034800E000BF08BD00000000B4190020B3
:204B0000B48D0300A3F5803A704700BF174B002B08BF134B9D46FFF7F5FF00218B460F46C3
:204B20001348144A121A2FF06DFB0E4B002B00D098470D4B002B00D098470020002104005F
:204B40000D000D48002802D00C4800E000BF25F073FF2000290026F090FF25F059FF00BF65
:204B600000000800000000000000000000100020401700203C4F00200000000000000000DB
:204B800013B5FFF7D9FA40F6B73398421D4C21D9642223689A7223681B4A997A10788842B5
:204BA00008D01170202201210092084621220A332AF021FA2368154AD97A1078884207D03D
:204BC000117020220121009208460B332AF013FA02B010BD40F6C413984283BFA0F6C41396
:204BE0000520B3FBF0F30123226888BF9BB2917A9942D0D9C81A1428C6BF14399172937236
:204C0000C9E700BF981000201E4700201F470020F0B5414D87B01022002102A82FF0F2FAE0
:204C200002F02CF810230121286802AA0EF08AFD3A4C00283ED064238DF80F305523ADF824
:204C400008300023ADF80A30ADF80C308DF8113041F66463ADF81230FA23ADF81430AA23BB
:204C600022688DF8163002AE06AF334603CBBB42106051601E4602F10802F6D102AA10230E
:204C8000012128680EF014FD2025012141F66462236808465A812A4600950B332AF0ABF93A
:204CA000012123682122084600950A332AF0A3F907B0F0BD9DF80830552B03D19DF81630CE
:204CC000AA2B12D0AA238DF8163064238DF80F30FA23ADF814305523ADF808300023ADF817
:204CE0000A30ADF80C308DF8113041F66463ADF812309DF80930226801338DF8093002AEF4
:204D000006AF334603CBBB42106051601E4602F10802F6D1B2E700BFD4100020981000202D
:204D200030B585B01022002168462FF06BFA55238DF8003064238DF8073041F66463ADF8C1
:204D40000A30FA23ADF80C30AA236C468DF80E300B4B04AD1B685A7A8DF80920224603CA98
:204D6000AA4218605960144603F10803F6D1054810236A46012100680EF09AFC05B030BD06
:204D800098100020D410002010B5044629F03FFD022806D0032820D008B907F0D7FE0CB976
:204DA00010BD9CB10AF028F8FFF7BAFF01220F4BFF211A7000220E4B0E481A7006F03AFA64
:204DC000BDE810404FF4FA711AF076B9074B64201C70BDE8104006F0E3BC2EF0B6F907F047
:204DE0009FFD0122014B1A70D9E700BF2247002021470020301B0020044B1B681A7822B1EC
:204E0000002201201A70FFF7BFBF70479C10002010B527F0EEFE1C4C2368C01A41F27B5338
:204E2000984227D9194827F0C7F8194827F0C4F8184827F0C1F8184827F0BEF8002301208C
:204E40002360FFF7A1FF154B1B681A7812B100221A701A715A7812B100225A705A719A786C
:204E600012B100229A709A71DA7812B10022DA70DA7110BDFF210A4806F0DCF94FF47A6144
:204E80001AF01AF9DFE700BF8C1A0020A0470300B8470300D0470300E84703009C100020A6
:204EA0004C1A002008B5FFF7B3FE00F05FFDFF21034806F0BFF9BDE8084002491AF0FCB8AD
:204EC000CC190020E09304007FB5002405460E4602948DF80C4029F09AFC022826D1144BC9
:204EE0001B681B79022B21D08DF80860012602ABFD220621009311200E4B01960BF0EEF8E1
:204F0000314628460BF06CF9214620462AF0D5F8FF21094806F08EF908491AF0CDF8FF216A
:204F2000074806F087F907491AF0C6F804B070BDB0300020345D0300EC19002000BADB0065
:204F4000CC190020E093040010B50B4C2368D97841B9DB79012B04D901210420FFF7B4FF97
:204F600000E0FAD0054B1B7813B9054827F024F800222368DA7110BD9C100020224700203E
:204F8000E847030010B50B4C2368997841B99B79012B04D901210320FFF796FF00E0FAD096
:204FA000054B1B7813B9054827F006F8002223689A7110BD9C10002022470020D0470300EC
:204FC00010B50B4C2368597841B95B79012B04D901210220FFF778FF00E0FAD0054B1B7844
:204FE00013B9054826F0E8FF002223685A7110BD9C10002022470020B847030010B50B4CE3
:205000002368197841B91879012804D901210846FFF75AFF00E0FBD0054B1B7813B905487D
:2050200026F0CAFF002223681A7110BD9C10002022470020A047030030B5002585B00446C4
:2050400002958DF80C5029F0E2FB022833D1274B1B681B79022B2ED0032C02AB2DD1802185
:205060008DF80910302104228DF80A1020498DF8082009681820497ACDE900328DF80B1072
:205080000A2206211B4B0BF029F8012108460BF0A7F8002108462AF010F8FF21164806F02C
:2050A000C9F816491AF008F8FF21154806F0C2F814491AF001F805B030BD042C4FF0010225
:2050C00008D18DF80850CDE90032FC22094B06211120D8E7052C02D18DF80820F3E7CDE968
:2050E00000328DF80840FD22024BF0E7B030002098100020345D0300EC19002000BADB0058
:20510000CC190020E093040070B58CB006460D46144629F07CFB022840F089800023052E70
:205120000AD8DFE806F0032D404D5862022206210120404B0AF0D2FF012108460BF050F8E4
:20514000002408A9E0B22CF01DFD00286AD19DF82030032B66D1BDF8250029F0ABFFFF2148
:20516000354806F067F8354919F0A6FFFF21344806F060F833490CB0BDE8704019F09CBF56
:20518000B5FA85F5CDE903334FF6FF7304EB84046D090293022208212B4B019400950120B3
:2051A0000AF09CFFC8E70120CDE90233C82304224FF44071CDE90003244B0AF08FFFBBE748
:2051C0000122CDE902330F234FF44071CDE9002310461E4BF1E7CDE9003347224FF44071E5
:2051E0001B4B01200AF07AFFA6E741F66412CDE9053340F68C230120002D14BF0121032141
:20520000CDE9033204EB4402C4EB42148440A4B2CDE900144C224FF440710E4B02900AF03E
:205220005DFF89E70134402C8BD1002095E70CB070BD00BF904E0300EC19002000BADB00C6
:20524000CC190020E09304007046030076460300784603007B46030010B51C4C23689A7A09
:205260005B7A9A4220D93AB1194B1B685B7A012B0DD10520FFF7E0FE164B1B7813B91648BC
:2052800026F09AFE002223681A819A7210BD134B5B69C3F3C0011B0701D4052001E0002188
:2052A0000120FFF731FFE7E7002BE5D0084A1268527A012A01D10420DCE7084A012152694E
:2052C00012F0080F1A46E8D00846EAE79C1000209810002022470020A047030000C0035064
:2052E00030B4074D0629287008D13AB9402B05D101230293034B30BC29F0CEBE30BC704767
:2053000020470020234700201FB50024CDE9024429F07DFA022835D121238DF80830202384
:20532000194A8DF80A3012688DF80C308DF80E30D37A917A8DF80F30082301936B440A2297
:205340008DF80B1000930121104B18208DF809408DF80D400AF0C2FE012108460AF040FF62
:205360002146204629F0A9FEFF21094805F062FF084919F0A1FEFF21074805F05BFF0749D2
:2053800019F09AFE04B010BD98100020345D0300EC19002000BADB00CC190020E093040059
:2053A00038B5224C2378012B0BD1214826F007FE204826F004FE204826F001FE1F4826F0F1
:2053C000FEFD1F4A13780133DBB2052B13701DD90025237815705BB12846FFF7D5FC194A8B
:2053E00013780133DBB20E2B137012D9157025700F4826F0E1FD0F4826F0DEFD0E4826F0A1
:20540000DBFD0E4826F0D8FDFFF77EFF23781BB938BD2378002BEBD0FF210B4805F00AFFAA
:20542000BDE838404FF4FA7119F046BE22470020A0470300B8470300D0470300E8470300D3
:205440002447002021470020301B0020FF2310B51A462449244805F0ADFEFF2323491A4620
:20546000234805F0A7FEFF2322491A46224805F0A1FEFF2321491A46214805F09BFEFF2337
:2054800020491A46204805F095FEFF231F491A461F4805F08FFEFF231E491A461E4805F03C
:2054A00089FEFF231D491A461D4805F083FEFF231C491A461C4805F07DFEFF231B491A4601
:2054C0001B4805F077FEFF231A491A461A4805F071FEBDE81040FF2318491A46184805F027
:2054E00069BE00BF5DBA02006C1A0020FD4F0000901A0020C14F0000B01A0020854F000023
:20550000D01A0020494F0000F01A0020114E00004C1A0020F94D00000C1A0020A15300005A
:20552000301B00206FBA0200EC19002059520000101B002065BA02002C1A0020814B000067
:20554000CC190020912808B503D1BDE8084029F05EB990280ED129F05AF902280AD126F0C1
:2055600098FA41F66462044B1B685A81BDE80840FFF7CABE08BD00BF9810002008B548B97A
:20558000FF21054805F056FEBDE8084040F6B83119F092BD08BD00BF6C1A002008B5FF21EA
:2055A000044805F047FEBDE8084040F6B83119F083BD00BF6C1A0020A54A38B5156885428B
:2055C00074D126F081FC0446002838D1A14D2B681A78BAB11A79187001321A7127F009FB06
:2055E0002B68DA68801A40F6B73290421FD9022101201C71FFF768FCFF21974805F01AFE1C
:2056000019F0D4FD954B1B7813B9954826F0D4FC944B1A68002A00F099810022FF219248FD
:205620001A6005F007FEBDE8384019F0BFBDFF21894805F0FFFDFA2119F03EFDE2E72846DC
:2056400026F042FC012840F08181824C23681A78002A40F07B811870804B1B7813B98048E0
:2056600026F0A7FC25682B6833F0FF030ED0AB782BB1FF217D4805F0DDFD19F097FD236873
:205680005B78002B6CD0FF21794865E027F0B1FAFF21E860704805F0CDFD40F6B83119F0E1
:2056A0000BFDBDE83840022006F082B85568854277D126F009FC044648BB664D2B685A7827
:2056C000BAB15A79587001325A7127F092FA2B681A69801A40F6B732904210D902215C71A9
:2056E0000846FFF7F1FBFF21614805F0A3FD19F05DFD5A4B1B78002B8AD15E4886E7FF21C8
:205700005B4805F097FDFA2119F0D6FCF1E7284626F0DAFB012840F019814E4C23685A784C
:20572000002A40F0138158704C4B1B7813B9514826F03FFC25682B6833F47F432BD02B782C
:205740002BB1FF21444805F075FD19F02FFD23689B782BB1FF21454805F06CFD19F026FD74
:205760002368DB782BB1FF21434805F063FD19F01DFD3C4C2368002B40F0E88027F039FA2C
:20578000FF212060384805F055FDBDE838404FF4FA6119F091BC27F02CFAFF21286134482F
:2057A00079E7956885426BD126F08EFB044650BB284D2B689A78BAB19A79987001329A71B7
:2057C00027F017FA2B685A69801A40F6B732904211D9022103209C71FFF776FBFF21234891
:2057E00005F028FD19F0E2FC1C4B1B78002B7FF40FAF22480AE7FF211C4805F01BFDFA214B
:2058000019F05AFCF0E7284626F05EFB012840F09D80104C23689A78002A40F0978098708D
:205820000E4B1B7813B9154826F0C3FB25682B6833F47F0306D02B78002B3FF420AFFF21F0
:20584000054818E727F0D5F9FF216861074822E7AC1000209C100020901A002022470020DB
:20586000A04703008C1A00204C1A0020D01A0020B01A0020B8470300F01A0020D0470300B8
:20588000D568854262D126F01FFB044650BB304D2B68DA78BAB1DA79D8700132DA7127F04F
:2058A000A8F92B689A69801A40F6B732904211D902210420DC71FFF707FBFF21254805F02E
:2058C000B9FC19F073FC244B1B78002B7FF4A0AE22489BE6FF211F4805F0ACFCFA2119F07A
:2058E000EBFBF0E7284626F0EFFA01282ED1184C2368DA7852BBD870174B1B7813B91748A0
:2059000026F057FB25682B6833F07F4318D02B782BB1FF21124805F08DFC19F047FC2368E4
:205920005B782BB1FF210F4805F084FC19F03EFC23689B78002B3FF41CAFFF210A4814E755
:2059400027F057F9FF21A8610248A4E638BD00BF9C100020F01A002022470020E84703007E
:20596000901A0020B01A0020D01A002070B52B4E90B008AD0FCE0FC596E80F00002485E807
:205980000F0001260323264DCDE9034428468DF80E30CDE9054407948DF808608DF80940B5
:2059A0008DF80A408DF80B4001F0FAFF0221052001F00CFD0223224628461A498DF81730F2
:2059C00002F074F8234622468DF819000090154928468DF8234002F083F810230A9008AACA
:2059E000284605A98DF809308DF8086002F09EF8284602AA03A926F0D9FB0B4B05F5005503
:205A0000D3F828233243C3F82823D3F8282342F48032C3F828236E6010B070BD8446030069
:205A20000040005A8096980000C0035010B51E4C26F04DFB236F23F0070343F0020323670D
:205A400026F04CFBD4F82031002023F0070343F00103C4F82031D4F8403123F0030343F0C2
:205A60000103C4F84031D4F8603123F0030343F00103C4F86031D4F8403223F0030343F071
:205A80000103C4F84032D4F8003223F0070343F00103C4F80032D4F8083223F0070343F03E
:205AA0000103C4F8083210BD0080005007B501A802F010FB9DF80530012B27D1214A936D94
:205AC000DB0313D4536B23F4FF0323F4FE4343F4BC1343F4A0635363136B23F4704343F45D
:205AE00040431363136B43F4E06313639DF8043063B94FF000531B68134B1B68134B1B6883
:205B0000134B1B68134B1B68134B1B68134AD2F8803043F00303C2F8803002F005FF02F080
:205B2000C1FE02F0C7FEFFF781FF02F0A9FE00F0D1FB03F017FA01F0A1F803B05DF804EB9F
:205B400004F056B900C00050004000200080002000C0002000000120004001200080005000
:205B600030B5174D95B00DAC0FCD0FC495E80700144B84E80700144A0021CDE90323062355
:205B8000102209A8CDE905312EF03CFB4FF480210E4B0DAACDE907130B238DF824300C23E7
:205BA0008DF825300A4B07A90A9320230B93094B0948009303AB03F0F7F815B030BD00BF4F
:205BC0002447030021000500008005502480055025470020701B0020C81B0020831E012B5C
:205BE00010B512D8012910D8114B04221B6905210020C3F3401301F091FE0E4B1B681868B3
:205C0000A8B1BDE81040436A18478B1E012B0CD801280CD8BDE810400022054B05211B6953
:205C20001046C3F3401301F079BE0129E5D910BD00C00350A810002008B50449044804F0F3
:205C400081F9BDE80840FFF78BBF00BFA0100020C01B0020014826F07DBF00BFC81B0020B6
:205C6000014B1A6A18681047C81B002008B50EF089FB0022014B1A7008BD00BF4547002013
:205C800008B5074826F01BF9064826F018F9064826F015F9BDE80840044826F010B900BF10
:205CA0004047030058470300704703008847030008B5074826F07AF9064826F077F9064875
:205CC00026F074F9BDE80840044826F06FB900BFA0470300B8470300D0470300E8470300D3
:205CE0000A46014925F068BF0A4803000A46014925F062BF1E4803000A46014925F05CBF76
:205D00004F4803000A46014925F056BF264803000A46014925F050BF2D4803000A460149E4
:205D200025F04ABF544803000A46014925F044BF5B4803000A46014925F03EBF3B4803001C
:205D40000A46014925F038BF344803000A46014925F032BF424803000A46014925F02CBF57
:205D6000624803000A46014925F026BF234803000A46014925F020BF1B4803000A460149E6
:205D800025F01ABF004803000A46014925F014BF054803000A46014925F00EBF0F48030022
:205DA0000A46014925F008BF144803000A46014925F002BF784803000A46014925F0FCBE72
:205DC0006F480300002209490B684BB1834204D1836A4AB19362012070471A469B6AF4E797
:205DE0000028F5D0184670470B60F4E7EC1B002070B5104D2B681BB100260F4B1C6804B992
:205E000070BD94F82C3093B126F081F92B6884F82C60013B2B6026F080F994F82D3013B9F3
:205E20002046FFF7CFFFD4E9083120469847A46AE5E700BFF01B0020EC1B0020034B1B6841
:205E4000002B0CBF01200420704700BFF01B0020024B1868B0FA80F040097047F01B002054
:205E600008B500F02DF8124B12498B4212D30020114B12498B4218D3FEF748FE186850F854
:205E80002240586840F82240013298688242F5D30C33EAE70022F8E71C6844F82200013261
:205EA0005C68A242F8D30833E4E70022F8E700BFBC8D0300C88D0300C88D0300C88D030055
:205EC0006FF00100104B114A10B59A60D3F888200F4942F47002C3F8882001F50052106659
:205EE00041F2FF7050660220C3F8D000BFF34F8FBFF36F8F08244FF440330648C0F88041B4
:205F0000D36004600B6110BD00ED00E0004000000080004400E100E0014B1868704700BFDD
:205F2000C0100020014B1860704700BFC0100020084B1B6F03F00703022B04D0032B05D069
:205F4000012B05D0FEE7044B18687047034BFBE70348704700800050C0100020C4100020EF
:205F6000002D310108B5FFF7E3FF054B1B6FC3F301330133B0FBF3F0024B186008BD00BF5E
:205F800000800050BC1000200048704700B4C404014B1868704700BFC4100020054B1860CC
:205FA000054B1B6F03F00703032B01D1FFF7DABF704700BFC4100020008000500048704742
:205FC000002D3101174B9868C0F304400C2822D8DFE800F0092121212121071719211B1DE6
:205FE0001F00114870479B6803F04073B3F1807F13D0B3F1007F12D00C4A002B08BF1046A0
:2060000070470B4870470B4870470B4870470B4870470B487047002070470A4870470A4865
:20602000704700BF0040015A405DC60000093D000024F400C0EA210180BA8C010048E801CA
:20604000005A620280841E0040420F00014B1868704700BFC8100020BFF34F8F0549064B66
:20606000CA6802F4E0621343CB60BFF34F8F00BFFDE700BF00ED00E00400FA0500239B6A4B
:20608000B3F5804F03D21968064A914203D00023037083607047012202709A689B694260D0
:2060A000F7E700BF07B0CD5E08B54FF00053024A1A60FFF7D1FF00BF02020FF073B5494B08
:2060C00004461A781AB102221A7002B070BDCDE900220028F9D001261E7026F018F8424D59
:2060E000424B186010F0AAFE2B785BB900F0C6FD40B93F4808233F4A3F4900680DF022FB4B
:2061000000B92E703D4B5A68E2603D4A9A601A6E22605A6E6260D3F87021A2601B6E5C0440
:2061200040D5384AD368D807FCD4374B1A68531C3DD04FF480139340344A13660423334C18
:2061400023664FF48063236625F089FE01300ED025F085FE40F20113984208D04FF48043C6
:2061600023664FF4004323661023C4F870311023264C4FF0804223664FF4005368462366FB
:2061800001A92266636625F04FFE009B2366019B63662B78002B98D0164B1A6822665B68B5
:2061A000636692E71A4AD368D907FCD4BDE7194B1B78002BC2D1184B5A68144B12B94FF463
:2061C00080121A66154A526812B94FF400121A66134B5B68002BB1D14FF480020B4B1A668B
:2061E000ACE700BF48470020464700200C1C0020D4100020041C0020007108000080004428
:2062000055CEAC0000000440CC1000200090004400000450474700200080055000C00550AF
:206220000000065038B5224D04462B78012B02D001232B7038BD0028FCD025F010FE0130C5
:2062400009D025F00CFE40F20113984203D0194AD368DB07FCD42268174B1A6662685A660D
:20626000A268C3F87021E268D40744BF00229A60124B1A68013213D1114A127882B9114914
:206280004968C80748BF1A600F4A5268D10744BF01221A600D4A5268D20744BF02221A60E7
:2062A00010F0D4FD0A4B186825F037FF0023C0E7484700200000044000800044CC10002070
:2062C000474700200080055000C00550000006500C1C002070B50024A36AB3F5804F22D2C7
:2062E0001A68124B9A421ED1114E337813F0FD0517D11048FFF7E2FE08214FF480330E4A58
:206300000E48C2F88011C36011600D4A1361AB6ADB69984704460748FFF784FF0CB901234A
:206320003370204670BD4FF48174FAE707B0CD5E47470020F41B002000E100E000A00044AA
:206340000090004413B51F4B1B7803B9FEE700231D4CCDE900336A4608231C4920680DF0C9
:20636000F1F9F0B91A4AD2F84031D2F840211F2B4FF0010310D9203A9340019A1343019398
:2063800008236A46114920680DF092F94FF00053104A1A60FFF760FE9340009A13430093A8
:2063A000EEE70D4B9842F1D1094AD2F84031D2F840211F2B4FF0010302D9203A9340DEE701
:2063C0009340ECE748470020D410002000710800008000440B020FF00BE000F038B500252E
:2063E000AB6A0446B3F5804F10D21B6BB3F5804F0CD20748FFF762FEAB6A20461B6B5B68A1
:206400009847BDE838400248FFF70CBF38BD00BF101C002037B50025AB6A0446B3F5804F8E
:20642000019113D21B6BB3F5804F0FD20948FFF745FEAB6A20461B6B01999B6998470446B5
:206440000448FFF7EFFE204603B030BD4FF48174F9E700BF101C002037B50025AB6A044674
:20646000B3F5804FCDE9002112D21B6B83B10A48FFF724FEDDE90021AB6A20461B6B5B6A19
:20648000984704460448FFF7CDFE204603B030BD4FF40174F9E700BF101C002037B500250C
:2064A000AB6A0446B3F5804F019113D21B6BB3F5804F0FD20948FFF701FEAB6A20461B6B6A
:2064C00001999B6A984704460448FFF7ABFE204603B030BD4FF40174F9E700BF101C002060
:2064E00010B50024A36AB3F5804F10D21B6BB3F5804F0CD20748FFF7E1FDA36A1B6B1B6B36
:20650000984704460348FFF78DFE204610BD0124FBE700BF101C002037B50025AB6A0446D1
:20652000B3F5804FCDE9002114D21B6BB3F5804F10D20A48FFF7C2FDDDE90021AB6A2046DF
:206540001B6B5B6B984704460448FFF76BFE204603B030BD40F20114F9E700BF101C0020E3
:2065600037B50025AB6A0446B3F5804FCDE9002114D21B6BB3F5804F10D20A48FFF79EFDB5
:20658000DDE90021AB6A20461B6B9B6B984704460448FFF747FE204603B030BD40F2011410
:2065A000F9E700BF101C002037B50025AB6A0446B3F5804F019113D21B6BB3F5804F0FD2B4
:2065C0000948FFF77BFDAB6A20461B6B0199DB6B984704460448FFF725FE204603B030BD87
:2065E00040F20114F9E700BF101C002005490A681318054883428CBF4FF0FF320B601046F0
:20660000704700BFD01000200000012037B504680023032261790546207901F07FF91422E6
:206620003023217913FB012303F1A04303F570331B686279D34003F001032370A379022B85
:206640000ED100F0A5FA2A460749607900F0CAFA0123024661792079CDE9003301F01AF9B3
:20666000002003B030BD00BFD3BE020010B5012243780178847830209A40054B00FB013347
:206680001CB942F210015A5010BD41F21001FAE700C0035010B501224378017884783020C9
:2066A0009A40054B00FB01331CB941F210015A5010BD42F21001FAE700C003502DE9F04F63
:2066C0009A46564B85B01B7806460F461546DDF83C909DF844B0DDF85080002B00F08D807E
:2066E000072A00F28C800E9B002B00F08880B9F1000F00F08480129BB3F5006F7FDC0128AA
:2067000002D1109B002B7AD0454B03EB05131B7B002B76D0434C1022002168462DF072FDCD
:2067200004EB45141022002F59D1394620462DF069FD43F210036380BBF1000F03D1E37809
:2067400043F00303E370374A0E9B02EB451CCCE90193129B6901013BC3F30A009DF84C30C8
:20676000012E03F003034FEA836343EA001E53582D48CDF800A000EA03004EEA0003535037
:2067800041D113230CF1100ECCF80C309CE80F008EE80F006FF00301DCF81C20109B61F30C
:2067A0009F02012FCCF81C20CCF8143003D1CCF81890CCF804300027194A290102EB05130F
:2067C00042F80180159A28465A60694622469F605E7301F07DFB384605B0BDE8F08F00215F
:2067E00020462DF00FFD4FF444736380BBF1000FA9D1E37843F03003A4E70C48ECE70C4831
:20680000EAE70C48E8E7B8F1000FD4D19CF8023068F304138CF80230CDE700BF4947002016
:20682000201C0020A01C00200F80FFF3028000F0018000F0078000F038B5124B05461B781D
:20684000DBB1E0B125F063FC0F4A00231146147B54B92B6001251A0101EB03131D738C50FE
:2068600025F05BFC204638BD0133082B02F11002EDD125F052FC0548F5E70548F3E7054827
:20688000F1E700BF49470020201C0020048000F0028000F0018000F013B525F038FC0023CA
:2068A0000B4A147B7CB90133082B02F11002F8D1019001F0C1FA074B01981C7025F02DFC98
:2068C000204602B010BD25F028FC0348F9E700BF201C002049470020058000F00D4B10B512
:2068E0001B78044693B1072812D825F010FC0A4B03EB04131A7B2AB100241C7325F00DFCA2
:20690000204610BD25F009FC0448FAE70448F8E70448F6E749470020201C0020068000F027
:20692000028000F0018000F0154B13B51868002301908DF8043025F0EAFB124B1C7824B19F
:2069400025F0EBFB104802B010BD01221A7025F0E4FB0E4B01A81C731C7783F82C4083F83E
:206960003C4083F84C4083F85C4083F86C4083F87C4008238DF8073001F080FA2046E2E79E
:20698000D448030049470020038000F0201C00200A4A08B512785AB107280BD8084A02EB62
:2069A00000131B7B43B1002101F05AFA002008BD0448FCE70448FAE70448F8E749470020B8
:2069C000201C0020028000F0018000F0078000F00A4A08B512785AB107280BD8084A02EB0A
:2069E00000131B7B43B1012101F03AFA002008BD0448FCE70448FAE70448F8E74947002097
:206A0000201C0020028000F0018000F0078000F00A4A08B5127852B107280AD8084A02EBD2
:206A200000131B7B3BB101F0A1FA002008BD0548FCE70548FAE70548F8E700BF4947002057
:206A4000201C0020028000F0018000F0078000F00D4B1B7893B1072812D889B10B4B03EBBA
:206A600000131B7B73B10A4B1A6D012303FA00F010401ABF00200B70087070470548704765
:206A8000054870470548704749470020201C002000000450028000F0018000F0078000F034
:206AA0000B4A10B512780C4662B107280CD859B1084A02EB00131B7B43B101F069FA2070F0
:206AC000002010BD0448FCE70448FAE70448F8E749470020201C0020028000F0018000F053
:206AE000078000F02DE9F843174B1F6D5B6D1F4000D5FEE701260025144CDFF85480DFF8D1
:206B00005490374217D02368C8F850609BB1A168284601316268A1609847637B012B0AD1B2
:206B200048B909EB45131A7B60F341021A731A7F60F341021A770135082D4FEA460604F1AB
:206B40001004DED1BDE8F88300000450201C002000200450A01C002070B5044601250B4E64
:206B600004B970BD94FAA4F0B0FA80F005FA00F306EB001224EA03045368002BF0D0117BB3
:206B800011B191689847EBE79847E9E7A01D002008B5192000F03AFE28B14FF00072074B03
:206BA000C3F880211A601A2000F030FE28B14FF08062024BC3F880211A6008BD00E100E004
:206BC00038B505460C4625F0A2FA0022044B03EB05135C601A73BDE8384025F09EBA00BF71
:206BE000A01D0020F8B505460F46164625F08FFA104B05F0FC02D3F824140023EC1804F005
:206C00000304144321FA04FC1CF0010F07D00133042BF3D1FF2425F080FA2046F8BDFF2CE9
:206C2000F9D00122044B03EB0413C3E901761A73F1E700BF00C00350A01D0020064BD3F8C1
:206C40002404D3F8202403F50053104000F05530C3F82004FFF780BF00C00350064BD3F8AA
:206C60002404D3F8202403F50053104000F0AA30C3F82004FFF770BF00C00350024B196893
:206C8000024B18680CF03EBCD8100020D410002037B5920004460D4601922DF0E1FC431C1E
:206CA0000BD060B929462046019A2DF074FA0028044808BF002003B030BD0348FBE7034872
:206CC000F9E700BF10E000F021E000F024E000F010B504462DF0BCFC431C10D088B901F0FB
:206CE00007FA234620F003002044984201D1002010BD53F8042B0132F7D00348F8E7034831
:206D0000F6E70348F4E700BF0EE000F021E000F024E000F008B525F0EBF9014B186008BDAF
:206D2000E0250020014B186825F0E6B9E025002041F6713310B5104C104AA0428CBF4FF4C3
:206D400080140024D169D363936801F4803123F44013234393600A4B98420A4BD3F818221E
:206D60008CBF42F0020222F00202C3F8182211B10022024BDA6310BD005A6202000003503B
:206D800080F0FA0200C007502E4B98424AD022D82D4B984240D014D82C4B984239D00AD87F
:206DA0002B4B984232D02B4B98422FD02A4B98422CD000207047294B9842FAD1284B186FFD
:206DC0007047284B98422AD0274B9842F1D1244BD3F880007047254B98422BD009D8244BA1
:206DE000984223D0234B9842E3D11D4BD3F88C007047214B984221D003F5740303F5105353
:206E00009842D6D1164BD3F898007047144B986D7047134B586E7047114B586F7047104B4B
:206E2000986F70470E4BD3F8840070470C4BD3F8880070470A4BD3F890007047084BD3F84F
:206E4000940070470048E8010024F400C0CF6A0080841E0000093D0040420F00405DC60049
:206E60000080E00FC0EA210180BA8C01007E560380D54302006CDC020090D00338B5134BA7
:206E80000546D3F820010C4600F00700042804D8DFE800F01A0A0E1216000023184605B122
:206EA000286004B1236038BDFFF736F80423F6E7FFF76EF80323F2E7FFF784F80523EEE72B
:206EC000FFF77CF80223EAE70123E8E70080005037B50C460021124A0191D2F8802105468C
:206EE00002F00302022A0ED0032A11D0012A14D101A8FFF7C3FF0D230DB1019A2A6004B14A
:206F0000236003B030BDFFF75DF805230190F3E7FFF754F802230190EEE70B46ECE700BFC0
:206F20000080005038B5104B0546D3F840310C4603F00303022B0BD0032B0DD0012B0FD148
:206F400024F06CFF082305B1286004B1236038BDFFF77CF80723F6E724F063FF0923F2E730
:206F600001230020EFE700BF0080005038B5104B0546D3F860310C4603F00303022B0BD026
:206F8000032B0DD0012B0FD124F048FF082305B1286004B1236038BDFFF758F80723F6E79C
:206FA00024F03FFF0923F2E701230020EFE700BF0080005038B5144B0546D3F800020C461B
:206FC00000F00700042804D8DFE800F01B0A0E1216000023184605B1286004B1236038BDB4
:206FE00024F01CFF0823F6E7FFF730F80723F2E724F017FF0923EEE7FEF7B4FF0C23800AAD
:20700000E9E70123E7E700BF0080005038B5144B0546D3F808020C4600F00700042804D862
:20702000DFE800F01B0A0E1216000023184605B1286004B1236038BD24F0F0FE0823F6E748
:20704000FFF704F80723F2E724F0EBFE0923EEE7FEF788FF0C23800AE9E70123E7E700BF87
:207060000080005038B5104B0546D3F840320C4603F00303022B0BD0032B0DD0012B0FD106
:2070800024F0CCFE082305B1286004B1236038BDFEF7DCFF0723F6E724F0C3FE0923F2E7CB
:2070A00000231846EFE700BF0080005038B5104B0546D3F800310C4603F00303022B0BD008
:2070C000032B0DD0012B0FD1FEF762FF032305B1286004B1236038BDFEF7B8FF0723F6E7FF
:2070E00024F09AFE0623F2E701230020EFE700BF00800050032814D005D8012805D0022825
:2071000009D0002005E00F28FBD1084B186FC0F3013001307047054BD3F89000C0F3046026
:20712000F7E7024B186FC0F38020F2E7008000501FB500230193252817D8DFE800F0131AF6
:207140001D262B353A50555A5F646977161A3F1616551A262B26351A5026773A3A3A3A26E5
:2071600026265A5FFEF7E4FE0190019805B05DF804FBFEF7F7FEF7E7FEF7DAFE0246022001
:20718000FFF7B8FFB2FBF0F0EEE7FEF7EBFE02460320F5E7FEF7E6FE02460320FFF7AAFFD8
:2071A000B2FBF0F04008DFE7002101A8FFF790FEDBE7002101A8FFF761FED6E702934FF074
:2071C000E0231B695B0705D5FEF7CCFE0290029B0193CAE703A902A8FFF7A4FEF7E70021CC
:2071E00001A8FFF79FFEC0E7002101A8FFF7BEFEBBE7002101A8FFF7DDFEB6E7002101A88C
:20720000FFF704FFB1E7002101A8FFF74FFFACE7094BD3F8803003F00303022BA9D0032BA0
:2072200001D00020A0E7FEF7CDFE9DE7002101A8FFF718FF99E700BF0080005008B50120CE
:20724000FFF776FFBDE80840034988428CBF02210121032000F002B880F0FA02032810B507
:207260000C4627D004D8012804D0022817D010BD0F28FCD124F01FFF24F025FF124B013C06
:20728000196F21F4405141EA04341C67FEF76AFE0021FFF74DFDBDE81040FFF7CFBF0A4B4E
:2072A000013CD3F8901021F0F85141EA0464C3F89040DCE7044B013C196F21F4806141EAB6
:2072C00084241C67D3E700BF008000501FB500230193252821D8DFE800F013202020202AF5
:2072E0002F454A4F54595E7120203420204A202020202A204520712F2F2F2F2020204F54A8
:20730000314B1B6F03F00703013B032B05D8DFE803F00C02080A04230193019805B05DF8EB
:2073200004FB0323F8E70623F6E70223F4E7002001A9FFF7CDFDF0E7002001A9FFF79EFD87
:20734000EBE702934FF0E0231B695B0705D5FEF709FE0B230393039BDEE703A902A8FFF755
:20736000E1FDF8E7002001A9FFF7DCFDD5E7002001A9FFF7FBFDD0E7002001A9FFF71AFEB4
:20738000CBE7002001A9FFF741FEC6E7002001A9FFF78CFEC1E70C4BD3F8803003F00303D2
:2073A000022B03D0032B05D00023B5E7FEF7DAFD0B23B1E7FEF706FE0523ADE7002001A9FA
:2073C000FFF750FEA9E700BF0080005070B50C46252848D8DFE810F02600470047004700A4
:2073E00047005B006B009B00AB00BB00CB00DB00EB00FC00470047007B0047004700AB00B0
:2074000047004700470047005B0047009B004700FC006B006B006B006B004700470047004F
:20742000BB00CB008B1E042B2ED8DFE803F02A1D032D27000025022624F03DFE24F043FE9F
:207440006B4A136F23F0070333431367FEF78AFD0021FFF76DFCFFF7F1FE25B9032C02D127
:207460000122644B9A6270BD0122634B0E469D6A03F58053C5F340059A62DDE7002504260E
:20748000DAE700250126D7E700252E46D4E78C1E0B2C8CBF0021594B554A98BF195DD2F8A6
:2074A000803123F003030B43C2F88031DBE78C1E032C8CBF0021524B4D4A98BF195DD2F877
:2074C000203123F007030B43C2F82031CBE70B2912D00ED8CC1F022CC5D84A4A536A43F0FD
:2074E000010353624FF0E022136923F004031361B9E70E29B7D1F0E7424A536A23F00103F2
:2075000053624FF0E022136943F00403EFE7CC1F022C8CBF00213C4B354A98BF195DD2F8C7
:20752000403123F003030B43C2F840319BE7CC1F022C8CBF0021354B2D4A98BF195DD2F8B3
:20754000603123F003030B43C2F860318BE7CC1F052C8CBF00212E4B254A98BF195DD2F86F
:20756000003223F007030B43C2F800327BE7CC1F052C8CBF0021274B1D4A98BF195DD2F828
:20758000083223F007030B43C2F808326BE7CC1E042C8CBF0021204B154A98BF195DD2F819
:2075A000003123F003030B43C2F800315BE705290CD00B2914BF002102210D4AD2F88030E0
:2075C00023F003030B43C2F880304CE70321F4E7CC1F022C8CBF0021104B054A98BF195DAC
:2075E000D2F8403223F003030B43C2F840323AE70080005000E0005000C00050FC48030044
:207600000849030000C007500C4903000C4903000F4903000F490300154903000C490300E0
:2076200038B50546FFF7B0FB214B04465A68012A04D120494A609A699207FCD10020FFF767
:2076400045FE042803D124F036FD24F03CFD1A4A24F04073954221D0184A954221D0184AD4
:20766000D16811F0060FFBD190689360916803F4F81301F4F8118B4216D12846FEF752FCA6
:207680000020FFF723FE042810D1FEF76BFC0021FFF74EFBBDE83840FFF7D0BD43F00073A4
:2076A000DDE743F08073DAE79060E9E738BD00BF00C0015000E0015040420F0080841E00B6
:2076C0000000015070B504460020FFF7FFFD03287CD045F60E030221414AC2F88030414B71
:2076E0009962012103F580539962936DD903FCD4D4E900131B0543EA0163E17B94F8225020
:207700000B43217B94F8236043EA0143617B43EA0133A17B43EA811313619169D4E90403B3
:207720001B0643EA806301F000410B43A17EE07E0B43217E43EA0143617E43EA0123936199
:20774000136AE26923F00D03002A0CBF0021082143EA020343EA8003214A43EA010313620C
:2077600094F820304FEA431331D1906A94F8211020F0330043EA0113034343F001039362EF
:20778000194B916D33EA0101FBD10221154B9962936D5B00FCD41069A36820F4700040EAC1
:2077A000035010614FF000420E4B9A611DB9022203F580539A6216B901220C4B9A6294F89E
:2077C00024301BB1064B0A4AC3F8802070BD916A21F0330131430B4343EA45039362EEE71B
:2077E00000C0005000D000500300014000E00050F1A7FFFF014B93F9000070474A4700200F
:20780000014B1880704700BFF4140020054B420953F8223000F01F0023FA00F0C04300F09F
:207820000100704700E100E00A4A10B51369044643F00403136102F031FD24F071FC30BFB2
:2078400024F06FFC02F03EFD1CB9BDE81040FEF789BB10BD00ED00E0084A10B51369044602
:2078600043F00403136102F019FD30BF02F02AFD1CB9BDE81040FEF775BB10BD00ED00E0C1
:20788000034A0179D36E23F030030B43D366704700400050072AF7B50D4614461F460FD8F6
:2078A00003219600B14000FA06F21548019124F03BFC05F0030201991248B24024F034FCCD
:2078C000114B12499DF82000002F08BF1946012303FA04F40C600E4B0E49002808BF0B4672
:2078E0001C600D4B9DF82400C3F820441031A3F6DC33002808BF0B461C6003B0F0BD00BF18
:2079000000C4035008C4035010E4035010D4035014D4035014E4035000E00350F8B5044603
:207920000D461F4616464AB101238B403021194A01FB0022FFB141F21001535004EB4403AA
:20794000072D4FF00F014FEA031317D8A80006FA00F281401048184424F0E6FB56B9012131
:2079600030230C4801FA05F503FB040077B141F21003C550F8BD42F21001DEE7A5F1080089
:20798000800006FA00F281400448E4E742F21003EFE700BF00C0035004C003500CC0035078
:2079A000012200F58053F0B55A60284B284AC36043691340FCD18361C0F89830436913F492
:2079C000401FFBD14369DA052CD4836F53BB43699B0529D4D0F8883033BBC26FD0F88C2095
:2079E000012200F500514A6030221A4C8360A0420CBF02240024036142F26006C3629C46DD
:207A000003620267C0F880201A46134FA2420ED10024104A904201D1102B10D10F4B4B6276
:207A20008B62F0BD436FCDE7D0F88430CFE700EB0215AE6401322F65C5F854C0E6E703F1A7
:207A4000280540F825400133E4E700BF12000200520001000040005A00C002808F330F800A
:207A6000084608B569B91820FFF762FBB0B10C4B984206D90B4B9B68C3F302730133B0FB7A
:207A8000F3F0094900F5742000F23F20B0FBF1F001387F2828BF7F20C0B208BD0120F0E7B6
:207AA000005A62020040005A40420F0010B50B4C8C4228BF0C461AB91820FFF739FB02463D
:207AC000601E0244B2FBF4F0A24228BF00F1FF30032828BF0320C0B210BD00BF005A620275
:207AE00010B51048104C002B18BF2046884228BF084604461AB91820FFF71AFB02469DF869
:207B000008000130B2FBF0F2601E0244B2FBF4F340F2FF30A24228BF03F1FF33984228BF32
:207B2000184610BD80969800404B4C002DE9F04F2DED068BB64D0C4616462946002285B01E
:207B40000746FFF7B3FF63790122984238BF184607F500535A605FFA80F8207950B918204E
:207B6000FFF7E6FAA842014628BFB0FBF8F13846FFF776FFE3784FEA08721B0102F0E0425C
:207B800003F0300313430004227800F4FE0003430AB143F0020362780AB143F00403A278B7
:207BA0000AB143F008034FF00009BB60E38822893B616389DFF864A243EA02433B62574543
:207BC00002D1B9F1020F08D1012307F580577B6005B0BDEC068BBDE8F08F002234788D48B6
:207BE0008D49B568944218BF014623468B48CDF80080FFF775FF07EB09118B6CADB223F03E
:207C0000405323F4EE2385422A4623F01F0304F0030543EA0503757838BF0246AD0005F03E
:207C20001C051D43B378F0781B0303F4E0432B43050405F4E0252B4335794FEA091C2D07D5
:207C400005F040552B438B648B6C7549C3F30233013B042B00F29180DFE803F08F8F8F03C5
:207C60000300D1F8843109F1050B002C7CD10AEB0C039C6CC4F30234631E012B684B7FD850
:207C8000DFED687AD3F88041A4B223044FF00103D444DCF8481024F4C045C1F3820101F160
:207CA000010E03FA0EFE07EE10EA4FEA8545B8EEC79AF6EE008A5A4B48BF45F000450029F6
:207CC0007CD1D3F88C311BB208EE103AB8EEC88A37EE888A9FED54AAF7EE049A002840F02E
:207CE0008380039224F0ABFA07EE900AF8EE677A87EE8A7AC9EE877A67EE887A039ADFEDEC
:207D00004B6A86EE897ADFED4A6A27EE267AF1EE006AB5F1004F07EEA67A0BD0DFED456A59
:207D200007EE904A37EE266AFAEEE87AB0EE667A17EE867AB5EEC07AF1EE10FACABFB1EE04
:207D4000477A38EEC77A37EE687AFDEEC77A17EE903AB3F5003F52DB6FEA55456FEA45450F
:207D60004FEA0B134AF80350C2F309020AEB0B114A6009F10109103621E7D1F8803172E777
:207D8000032C0AD1D3F88041D3F88C31240C1B1407EE903AF8EEE77A77E7042CD3F8844142
:207DA0000BBFD3F88C31D3F88C311B141B1407BFA4B25B00240C03EB4303E9E7D3F8901174
:207DC000D3F888310FFA81FC07EE10CAB8EEC77A77EE677A29EE287A1BB287EE878A07EE9C
:207DE000903AF8EEE77A73E7D6ED037AF8EE677A87EE8A7AC9EE877A67EE887A7FE713F51B
:207E0000003FAABFC3F3110345F400351D43A7E7005A6202404B4C00809698000040005AB7
:207E20000080E00F0000000000007A440000804300002044000000494FF40012064BC3F844
:207E40008020BFF34F8FBFF36F8F0022FF21034B5A6599625A60704700E100E00000045072
:207E6000044A054B002918BF1346012202FA00F018607047402004504010045030B5047814
:207E800045788178C27801200F4B41EA0541240658609C609961FF21996200219963196479
:207EA0004FF0004159654FF0FF314FF4001003F50053196505491301DBB2C1F8800181F857
:207EC0001533086030BD00BF0000045000E100E02DE9F04101250C46C3B2DFF888E0D1F8F5
:207EE00000809D408F7ACB7A94F80DC0097BCEF850500EF5005E4EF820804FF0300E184E6A
:207F00001B050EFB006043EA074343EA415322F00302C0F860C0C365026724F0F8F8736D3C
:207F20002B437365237A13B1336C2B433364637A13B1B36B2B43B3632279A37943EA02438A
:207F4000084A93616179E37943EA014306498B61034B55639D64BDE8F04124F0DEB800BFB3
:207F600000000450002004500010045010B50124C0B2844024F0CBF8044B5A6D22EA0402B6
:207F80005A659C62BDE8104024F0C7B80000045010B50124C0B2844024F0B9F8074BDA6ACD
:207FA000224209D15B6B34EA03030CBF0124002424F0B3F8204610BD0024F9E7000004503B
:207FC00041F67132034BDA63012203F50053DA60704700BF0000035041F671320121044B80
:207FE000DA6303F50052D1600022DA63704700BF00000350014BD3F89400704700400050AF
:20800000CB784A7810B55B010C7843EA82030A79234343EA02130C22424302F1B0421363CB
:20802000012C02BF8A78024B43F8202010BD00BFD080035008B54FF0B0435A6802B960B1DC
:208040005B680BB124F023F94FF0B04130B10120074B586024F01BF9C86008BD24F017F9FC
:208060000223CB6024F013F90122024B5A60F4E700100058002000584FF0B0435B6870B591
:208080000BB124F004F90121104B4578596083780679002BC37814BF02240024002B14BF25
:2080A000042200224379DB0043EA06132B43234313434FF0B0429360054B59600378002B9E
:2080C00014BF0B460223D36070BD00BF0020005800100058054B5B69C3F38512827003F012
:2080E0003F021B0B42700370704700BF00C007500120034B9B680A3303F01F039840704714
:208100000080E00F0D4B984208D1A3F50033C3F88411C36D43F08003C3657047084B9842D8
:2081200004D1A3F51033C3F89411F2E7054B984204BFA3F52033C3F8A411EAE70080055068
:2081400000C005500000065070B5054616461C4619B90320FEF7ECFF0146402C1BD003D838
:20816000DCB1202C1BD070BD602CFCD1042303FB06F2560806EB4113B3FBF2F3094A203BB4
:2081800002EAC303AA6822F06002AA60AA681443AC60EB61E7E70623E9E71023E7E70823E9
:2081A000E5E700BFF8FF7F00012200F5805310B55A6040F6AA6341F20502436100231249B5
:2081C0008360C365C26000F500520361C361C36491640E498365884206D00D4CA04203D09A
:2081E00004F58044A0420BD18842036506D0084B984203D003F58043984201D100234365CA
